{
  "contractName": "Bet",
  "abi": [
    {
      "inputs": [
        {
          "internalType": "address",
          "name": "_tokenAddress",
          "type": "address"
        },
        {
          "internalType": "address",
          "name": "_oracleAddress",
          "type": "address"
        }
      ],
      "stateMutability": "nonpayable",
      "type": "constructor"
    },
    {
      "anonymous": false,
      "inputs": [
        {
          "indexed": false,
          "internalType": "bytes32",
          "name": "_eventId",
          "type": "bytes32"
        },
        {
          "indexed": false,
          "internalType": "address",
          "name": "_player",
          "type": "address"
        },
        {
          "indexed": false,
          "internalType": "int8",
          "name": "_chosenWinner",
          "type": "int8"
        },
        {
          "indexed": false,
          "internalType": "uint256",
          "name": "_amount",
          "type": "uint256"
        }
      ],
      "name": "BetPlaced",
      "type": "event"
    },
    {
      "anonymous": false,
      "inputs": [
        {
          "indexed": false,
          "internalType": "address",
          "name": "_address",
          "type": "address"
        }
      ],
      "name": "OracleAddressSet",
      "type": "event"
    },
    {
      "anonymous": false,
      "inputs": [
        {
          "indexed": true,
          "internalType": "address",
          "name": "previousOwner",
          "type": "address"
        },
        {
          "indexed": true,
          "internalType": "address",
          "name": "newOwner",
          "type": "address"
        }
      ],
      "name": "OwnershipTransferred",
      "type": "event"
    },
    {
      "inputs": [],
      "name": "owner",
      "outputs": [
        {
          "internalType": "address",
          "name": "",
          "type": "address"
        }
      ],
      "stateMutability": "view",
      "type": "function",
      "constant": true
    },
    {
      "inputs": [],
      "name": "renounceOwnership",
      "outputs": [],
      "stateMutability": "nonpayable",
      "type": "function"
    },
    {
      "inputs": [
        {
          "internalType": "address",
          "name": "",
          "type": "address"
        }
      ],
      "name": "tokenRegistered",
      "outputs": [
        {
          "internalType": "bool",
          "name": "",
          "type": "bool"
        }
      ],
      "stateMutability": "view",
      "type": "function",
      "constant": true
    },
    {
      "inputs": [
        {
          "internalType": "address",
          "name": "newOwner",
          "type": "address"
        }
      ],
      "name": "transferOwnership",
      "outputs": [],
      "stateMutability": "nonpayable",
      "type": "function"
    },
    {
      "inputs": [
        {
          "internalType": "bytes32",
          "name": "",
          "type": "bytes32"
        }
      ],
      "name": "userBet",
      "outputs": [
        {
          "internalType": "uint256",
          "name": "totalAmountOnTeamA",
          "type": "uint256"
        },
        {
          "internalType": "uint256",
          "name": "totalAmountOnTeamB",
          "type": "uint256"
        }
      ],
      "stateMutability": "view",
      "type": "function",
      "constant": true
    },
    {
      "inputs": [
        {
          "internalType": "address",
          "name": "",
          "type": "address"
        }
      ],
      "name": "userTokenBal",
      "outputs": [
        {
          "internalType": "uint256",
          "name": "depositedAmount",
          "type": "uint256"
        },
        {
          "internalType": "uint256",
          "name": "ongoingBetAmount",
          "type": "uint256"
        },
        {
          "internalType": "uint256",
          "name": "balanceAvailable",
          "type": "uint256"
        },
        {
          "internalType": "uint256",
          "name": "balancewithdrawn",
          "type": "uint256"
        },
        {
          "internalType": "uint256",
          "name": "balanceLost",
          "type": "uint256"
        }
      ],
      "stateMutability": "view",
      "type": "function",
      "constant": true
    },
    {
      "stateMutability": "payable",
      "type": "receive",
      "payable": true
    },
    {
      "inputs": [
        {
          "internalType": "address",
          "name": "tokenAddress",
          "type": "address"
        }
      ],
      "name": "registerToken",
      "outputs": [
        {
          "internalType": "bool",
          "name": "success",
          "type": "bool"
        }
      ],
      "stateMutability": "nonpayable",
      "type": "function"
    },
    {
      "inputs": [],
      "name": "getContractDAIBalance",
      "outputs": [
        {
          "internalType": "uint256",
          "name": "",
          "type": "uint256"
        }
      ],
      "stateMutability": "view",
      "type": "function",
      "constant": true
    },
    {
      "inputs": [
        {
          "internalType": "bytes32",
          "name": "eventId",
          "type": "bytes32"
        }
      ],
      "name": "getOddsA",
      "outputs": [
        {
          "internalType": "uint256",
          "name": "oddsTeamA",
          "type": "uint256"
        }
      ],
      "stateMutability": "view",
      "type": "function",
      "constant": true
    },
    {
      "inputs": [
        {
          "internalType": "bytes32",
          "name": "eventId",
          "type": "bytes32"
        }
      ],
      "name": "getOddsB",
      "outputs": [
        {
          "internalType": "uint256",
          "name": "oddsTeamA",
          "type": "uint256"
        }
      ],
      "stateMutability": "view",
      "type": "function",
      "constant": true
    },
    {
      "inputs": [
        {
          "internalType": "address",
          "name": "tokenAddress",
          "type": "address"
        },
        {
          "internalType": "uint256",
          "name": "_amount",
          "type": "uint256"
        }
      ],
      "name": "deposit",
      "outputs": [],
      "stateMutability": "nonpayable",
      "type": "function"
    },
    {
      "inputs": [
        {
          "internalType": "address",
          "name": "_spender",
          "type": "address"
        },
        {
          "internalType": "uint256",
          "name": "_amount",
          "type": "uint256"
        }
      ],
      "name": "approve",
      "outputs": [],
      "stateMutability": "nonpayable",
      "type": "function"
    },
    {
      "inputs": [],
      "name": "testOracleConnection",
      "outputs": [
        {
          "internalType": "bool",
          "name": "",
          "type": "bool"
        }
      ],
      "stateMutability": "view",
      "type": "function",
      "constant": true
    },
    {
      "inputs": [],
      "name": "getOracleAddress",
      "outputs": [
        {
          "internalType": "address",
          "name": "",
          "type": "address"
        }
      ],
      "stateMutability": "view",
      "type": "function",
      "constant": true
    },
    {
      "inputs": [],
      "name": "getBettableEvents",
      "outputs": [
        {
          "internalType": "bytes32[]",
          "name": "pendingEvents",
          "type": "bytes32[]"
        }
      ],
      "stateMutability": "view",
      "type": "function",
      "constant": true
    },
    {
      "inputs": [
        {
          "internalType": "bytes32",
          "name": "_eventId",
          "type": "bytes32"
        }
      ],
      "name": "getEvent",
      "outputs": [
        {
          "internalType": "bytes32",
          "name": "id",
          "type": "bytes32"
        },
        {
          "internalType": "string",
          "name": "name",
          "type": "string"
        },
        {
          "internalType": "string",
          "name": "teamAname",
          "type": "string"
        },
        {
          "internalType": "string",
          "name": "teamBname",
          "type": "string"
        },
        {
          "internalType": "uint256",
          "name": "date",
          "type": "uint256"
        },
        {
          "internalType": "enum OracleInterface.EventOutcome",
          "name": "outcome",
          "type": "uint8"
        },
        {
          "internalType": "int8",
          "name": "winner",
          "type": "int8"
        }
      ],
      "stateMutability": "view",
      "type": "function",
      "constant": true
    },
    {
      "inputs": [],
      "name": "getLatestEvent",
      "outputs": [
        {
          "internalType": "bytes32",
          "name": "id",
          "type": "bytes32"
        },
        {
          "internalType": "string",
          "name": "name",
          "type": "string"
        },
        {
          "internalType": "string",
          "name": "teamAname",
          "type": "string"
        },
        {
          "internalType": "string",
          "name": "teamBname",
          "type": "string"
        },
        {
          "internalType": "uint256",
          "name": "date",
          "type": "uint256"
        },
        {
          "internalType": "enum OracleInterface.EventOutcome",
          "name": "outcome",
          "type": "uint8"
        },
        {
          "internalType": "int8",
          "name": "winner",
          "type": "int8"
        }
      ],
      "stateMutability": "view",
      "type": "function",
      "constant": true
    },
    {
      "inputs": [
        {
          "internalType": "bytes32",
          "name": "_eventId",
          "type": "bytes32"
        },
        {
          "internalType": "int8",
          "name": "_chosenWinner",
          "type": "int8"
        },
        {
          "internalType": "uint256",
          "name": "_amount",
          "type": "uint256"
        }
      ],
      "name": "placeBet",
      "outputs": [],
      "stateMutability": "payable",
      "type": "function",
      "payable": true
    },
    {
      "inputs": [
        {
          "internalType": "uint256",
          "name": "amount",
          "type": "uint256"
        }
      ],
      "name": "withdrawAmount",
      "outputs": [
        {
          "internalType": "bool",
          "name": "success",
          "type": "bool"
        }
      ],
      "stateMutability": "nonpayable",
      "type": "function"
    },
    {
      "inputs": [
        {
          "internalType": "bytes32",
          "name": "eventId",
          "type": "bytes32"
        }
      ],
      "name": "eventClosure",
      "outputs": [
        {
          "components": [
            {
              "internalType": "address",
              "name": "user",
              "type": "address"
            },
            {
              "internalType": "bytes32",
              "name": "eventId",
              "type": "bytes32"
            },
            {
              "internalType": "uint256",
              "name": "amount",
              "type": "uint256"
            },
            {
              "internalType": "int8",
              "name": "chosenWinner",
              "type": "int8"
            }
          ],
          "internalType": "struct Bet.Bet[]",
          "name": "",
          "type": "tuple[]"
        }
      ],
      "stateMutability": "nonpayable",
      "type": "function"
    }
  ],
  "bytecode": "0x60806040526000600560006101000a81548173ffffffffffffffffffffffffffffffffffffffff021916908373ffffffffffffffffffffffffffffffffffffffff160217905550600560009054906101000a900473ffffffffffffffffffffffffffffffffffffffff16600660006101000a81548173ffffffffffffffffffffffffffffffffffffffff021916908373ffffffffffffffffffffffffffffffffffffffff16021790555067016345785d8a0000600755348015620000c257600080fd5b5060405162003b3838038062003b388339818101604052810190620000e89190620005dc565b62000108620000fc620001de60201b60201c565b620001e660201b60201c565b6001808190555081600073ffffffffffffffffffffffffffffffffffffffff168173ffffffffffffffffffffffffffffffffffffffff160362000182576040517f08c379a0000000000000000000000000000000000000000000000000000000008152600401620001799062000684565b60405180910390fd5b82600260006101000a81548173ffffffffffffffffffffffffffffffffffffffff021916908373ffffffffffffffffffffffffffffffffffffffff160217905550620001d482620002aa60201b60201c565b50505050620007b5565b600033905090565b60008060009054906101000a900473ffffffffffffffffffffffffffffffffffffffff169050816000806101000a81548173ffffffffffffffffffffffffffffffffffffffff021916908373ffffffffffffffffffffffffffffffffffffffff1602179055508173ffffffffffffffffffffffffffffffffffffffff168173ffffffffffffffffffffffffffffffffffffffff167f8be0079c531659141344cd1fd0a4f28419497f9722a3daafe3b4186f6b6457e060405160405180910390a35050565b6000620002bc620001de60201b60201c565b73ffffffffffffffffffffffffffffffffffffffff16620002e26200054960201b60201c565b73ffffffffffffffffffffffffffffffffffffffff16146200033b576040517f08c379a00000000000000000000000000000000000000000000000000000000081526004016200033290620006f6565b60405180910390fd5b81600073ffffffffffffffffffffffffffffffffffffffff168173ffffffffffffffffffffffffffffffffffffffff1603620003ae576040517f08c379a0000000000000000000000000000000000000000000000000000000008152600401620003a59062000684565b60405180910390fd5b82600560006101000a81548173ffffffffffffffffffffffffffffffffffffffff021916908373ffffffffffffffffffffffffffffffffffffffff160217905550600560009054906101000a900473ffffffffffffffffffffffffffffffffffffffff16600660006101000a81548173ffffffffffffffffffffffffffffffffffffffff021916908373ffffffffffffffffffffffffffffffffffffffff1602179055507fdd82bdfc28fcc826c53263dc2a2b6083e27e92699ebfee617227e08e21c202f0600560009054906101000a900473ffffffffffffffffffffffffffffffffffffffff16604051620004a5919062000729565b60405180910390a1600660009054906101000a900473ffffffffffffffffffffffffffffffffffffffff1673ffffffffffffffffffffffffffffffffffffffff16633412a15c6040518163ffffffff1660e01b8152600401602060405180830381865afa1580156200051b573d6000803e3d6000fd5b505050506040513d601f19601f8201168201806040525081019062000541919062000783565b915050919050565b60008060009054906101000a900473ffffffffffffffffffffffffffffffffffffffff16905090565b600080fd5b600073ffffffffffffffffffffffffffffffffffffffff82169050919050565b6000620005a48262000577565b9050919050565b620005b68162000597565b8114620005c257600080fd5b50565b600081519050620005d681620005ab565b92915050565b60008060408385031215620005f657620005f562000572565b5b60006200060685828601620005c5565b92505060206200061985828601620005c5565b9150509250929050565b600082825260208201905092915050565b7f416464726573732030206973206e6f7420616c6c6f7765640000000000000000600082015250565b60006200066c60188362000623565b9150620006798262000634565b602082019050919050565b600060208201905081810360008301526200069f816200065d565b9050919050565b7f4f776e61626c653a2063616c6c6572206973206e6f7420746865206f776e6572600082015250565b6000620006de60208362000623565b9150620006eb82620006a6565b602082019050919050565b600060208201905081810360008301526200071181620006cf565b9050919050565b620007238162000597565b82525050565b600060208201905062000740600083018462000718565b92915050565b60008115159050919050565b6200075d8162000746565b81146200076957600080fd5b50565b6000815190506200077d8162000752565b92915050565b6000602082840312156200079c576200079b62000572565b5b6000620007ac848285016200076c565b91505092915050565b61337380620007c56000396000f3fe6080604052600436106101235760003560e01c80638da5cb5b116100a0578063b18b78dd11610064578063b18b78dd14610427578063bc18aa5e14610452578063e382a63b1461048f578063ecbc4b4a146104ab578063f2fde38b146104ec5761012a565b80638da5cb5b1461032b5780639019f4be146103565780639a74c81f146103945780639be2395d146103bf578063a2e1ce62146103ea5761012a565b806347e7ef24116100e757806347e7ef241461023a578063715018a61461026357806379ff47771461027a57806383e16e6d146102ab5780638c172fa2146102e85761012a565b8063018258441461012f5780630562b9f71461016c578063095ea7b3146101a957806309824a80146101d25780632ce3707e1461020f5761012a565b3661012a57005b600080fd5b34801561013b57600080fd5b5061015660048036038101906101519190611fe2565b610515565b6040516101639190612028565b60405180910390f35b34801561017857600080fd5b50610193600480360381019061018e919061206f565b6105ab565b6040516101a091906120b7565b60405180910390f35b3480156101b557600080fd5b506101d060048036038101906101cb9190612130565b6106f2565b005b3480156101de57600080fd5b506101f960048036038101906101f49190612170565b610808565b60405161020691906120b7565b60405180910390f35b34801561021b57600080fd5b5061022461097a565b60405161023191906120b7565b60405180910390f35b34801561024657600080fd5b50610261600480360381019061025c9190612130565b610a6c565b005b34801561026f57600080fd5b50610278610d91565b005b34801561028657600080fd5b5061028f610e19565b6040516102a297969594939291906122d8565b60405180910390f35b3480156102b757600080fd5b506102d260048036038101906102cd9190611fe2565b610ede565b6040516102df919061249c565b60405180910390f35b3480156102f457600080fd5b5061030f600480360381019061030a9190611fe2565b61138a565b60405161032297969594939291906122d8565b60405180910390f35b34801561033757600080fd5b50610340611450565b60405161034d91906124cd565b60405180910390f35b34801561036257600080fd5b5061037d60048036038101906103789190611fe2565b611479565b60405161038b9291906124e8565b60405180910390f35b3480156103a057600080fd5b506103a961149d565b6040516103b69190612028565b60405180910390f35b3480156103cb57600080fd5b506103d4611540565b6040516103e191906125c0565b60405180910390f35b3480156103f657600080fd5b50610411600480360381019061040c9190612170565b6115dd565b60405161041e91906120b7565b60405180910390f35b34801561043357600080fd5b5061043c6115fd565b60405161044991906124cd565b60405180910390f35b34801561045e57600080fd5b5061047960048036038101906104749190611fe2565b611627565b6040516104869190612028565b60405180910390f35b6104a960048036038101906104a4919061260e565b6116bd565b005b3480156104b757600080fd5b506104d260048036038101906104cd9190612170565b611d2f565b6040516104e3959493929190612661565b60405180910390f35b3480156104f857600080fd5b50610513600480360381019061050e9190612170565b611d65565b005b6000806000806000600860008781526020019081526020016000206000015493506008600087815260200190815260200160002060010154925061057583610567606487611e5c90919063ffffffff16565b611e7290919063ffffffff16565b915061059d8461058f606486611e5c90919063ffffffff16565b611e7290919063ffffffff16565b905081945050505050919050565b600061060282600a60003373ffffffffffffffffffffffffffffffffffffffff1673ffffffffffffffffffffffffffffffffffffffff16815260200190815260200160002060020154611e8890919063ffffffff16565b600a60003373ffffffffffffffffffffffffffffffffffffffff1673ffffffffffffffffffffffffffffffffffffffff16815260200190815260200160002060020181905550600260009054906101000a900473ffffffffffffffffffffffffffffffffffffffff1673ffffffffffffffffffffffffffffffffffffffff1663a9059cbb33846040518363ffffffff1660e01b81526004016106a59291906126b4565b6020604051808303816000875af11580156106c4573d6000803e3d6000fd5b505050506040513d601f19601f820116820180604052508101906106e89190612709565b5060019050919050565b81600073ffffffffffffffffffffffffffffffffffffffff168173ffffffffffffffffffffffffffffffffffffffff1603610762576040517f08c379a000000000000000000000000000000000000000000000000000000000815260040161075990612782565b60405180910390fd5b600260009054906101000a900473ffffffffffffffffffffffffffffffffffffffff1673ffffffffffffffffffffffffffffffffffffffff1663095ea7b384846040518363ffffffff1660e01b81526004016107bf9291906126b4565b6020604051808303816000875af11580156107de573d6000803e3d6000fd5b505050506040513d601f19601f820116820180604052508101906108029190612709565b50505050565b6000610812611e9e565b73ffffffffffffffffffffffffffffffffffffffff16610830611450565b73ffffffffffffffffffffffffffffffffffffffff1614610886576040517f08c379a000000000000000000000000000000000000000000000000000000000815260040161087d906127ee565b60405180910390fd5b60001515600960008473ffffffffffffffffffffffffffffffffffffffff1673ffffffffffffffffffffffffffffffffffffffff16815260200190815260200160002060009054906101000a900460ff16151514610919576040517f08c379a00000000000000000000000000000000000000000000000000000000081526004016109109061285a565b60405180910390fd5b6001600960008473ffffffffffffffffffffffffffffffffffffffff1673ffffffffffffffffffffffffffffffffffffffff16815260200190815260200160002060006101000a81548160ff02191690831515021790555060019050919050565b60008073ffffffffffffffffffffffffffffffffffffffff16600560009054906101000a900473ffffffffffffffffffffffffffffffffffffffff1673ffffffffffffffffffffffffffffffffffffffff1614158015610a675750600660009054906101000a900473ffffffffffffffffffffffffffffffffffffffff1673ffffffffffffffffffffffffffffffffffffffff16633412a15c6040518163ffffffff1660e01b8152600401602060405180830381865afa158015610a42573d6000803e3d6000fd5b505050506040513d601f19601f82011682018060405250810190610a669190612709565b5b905090565b33600073ffffffffffffffffffffffffffffffffffffffff168173ffffffffffffffffffffffffffffffffffffffff1603610adc576040517f08c379a0000000000000000000000000000000000000000000000000000000008152600401610ad390612782565b60405180910390fd5b600a821015610b20576040517f08c379a0000000000000000000000000000000000000000000000000000000008152600401610b17906128c6565b60405180910390fd5b60011515600960008573ffffffffffffffffffffffffffffffffffffffff1673ffffffffffffffffffffffffffffffffffffffff16815260200190815260200160002060009054906101000a900460ff16151514610bb3576040517f08c379a0000000000000000000000000000000000000000000000000000000008152600401610baa90612932565b60405180910390fd5b6000610c0a83600a60003373ffffffffffffffffffffffffffffffffffffffff1673ffffffffffffffffffffffffffffffffffffffff16815260200190815260200160002060000154611ea690919063ffffffff16565b90506000610c6384600a60003373ffffffffffffffffffffffffffffffffffffffff1673ffffffffffffffffffffffffffffffffffffffff16815260200190815260200160002060020154611ea690919063ffffffff16565b905060006040518060a0016040528084815260200160008152602001838152602001600081526020016000815250905080600a60003373ffffffffffffffffffffffffffffffffffffffff1673ffffffffffffffffffffffffffffffffffffffff16815260200190815260200160002060008201518160000155602082015181600101556040820151816002015560608201518160030155608082015181600401559050508573ffffffffffffffffffffffffffffffffffffffff166323b872dd3330886040518463ffffffff1660e01b8152600401610d4593929190612952565b6020604051808303816000875af1158015610d64573d6000803e3d6000fd5b505050506040513d601f19601f82011682018060405250810190610d889190612709565b50505050505050565b610d99611e9e565b73ffffffffffffffffffffffffffffffffffffffff16610db7611450565b73ffffffffffffffffffffffffffffffffffffffff1614610e0d576040517f08c379a0000000000000000000000000000000000000000000000000000000008152600401610e04906127ee565b60405180910390fd5b610e176000611ebc565b565b600060608060606000806000600660009054906101000a900473ffffffffffffffffffffffffffffffffffffffff1673ffffffffffffffffffffffffffffffffffffffff166329e5426960016040518263ffffffff1660e01b8152600401610e8191906120b7565b600060405180830381865afa158015610e9e573d6000803e3d6000fd5b505050506040513d6000823e3d601f19601f82011682018060405250810190610ec79190612b13565b965096509650965096509650965090919293949596565b60606000806000806000806000610ef48961138a565b9650965096509650965096509650600380811115610f1557610f14612245565b5b826003811115610f2857610f27612245565b5b14610f68576040517f08c379a0000000000000000000000000000000000000000000000000000000008152600401610f5f90612c55565b60405180910390fd5b600080600090505b600460008c81526020019081526020016000208054905081101561128a578260000b600460008d8152602001908152602001600020600081548110610fb857610fb7612c75565b5b906000526020600020906004020160030160009054906101000a900460000b60000b036112775760008360000b03610ffa57610ff38b610515565b9150611006565b6110038b611627565b91505b6110b061105f6064600460008f815260200190815260200160002060008154811061103457611033612c75565b5b906000526020600020906004020160020154856110519190612cd3565b611e7290919063ffffffff16565b600a60003373ffffffffffffffffffffffffffffffffffffffff1673ffffffffffffffffffffffffffffffffffffffff16815260200190815260200160002060020154611ea690919063ffffffff16565b600a6000600460008f81526020019081526020016000206000815481106110da576110d9612c75565b5b906000526020600020906004020160000160009054906101000a900473ffffffffffffffffffffffffffffffffffffffff1673ffffffffffffffffffffffffffffffffffffffff1673ffffffffffffffffffffffffffffffffffffffff168152602001908152602001600020600201819055506111d9600460008d815260200190815260200160002060008154811061117657611175612c75565b5b906000526020600020906004020160020154600a60003373ffffffffffffffffffffffffffffffffffffffff1673ffffffffffffffffffffffffffffffffffffffff16815260200190815260200160002060010154611e8890919063ffffffff16565b600a6000600460008f815260200190815260200160002060008154811061120357611202612c75565b5b906000526020600020906004020160000160009054906101000a900473ffffffffffffffffffffffffffffffffffffffff1673ffffffffffffffffffffffffffffffffffffffff1673ffffffffffffffffffffffffffffffffffffffff168152602001908152602001600020600101819055505b808061128290612d2d565b915050610f70565b50600460008b8152602001908152602001600020805480602002602001604051908101604052809291908181526020016000905b8282101561137757838290600052602060002090600402016040518060800160405290816000820160009054906101000a900473ffffffffffffffffffffffffffffffffffffffff1673ffffffffffffffffffffffffffffffffffffffff1673ffffffffffffffffffffffffffffffffffffffff16815260200160018201548152602001600282015481526020016003820160009054906101000a900460000b60000b60000b81525050815260200190600101906112be565b5050505098505050505050505050919050565b600060608060606000806000600660009054906101000a900473ffffffffffffffffffffffffffffffffffffffff1673ffffffffffffffffffffffffffffffffffffffff16638c172fa2896040518263ffffffff1660e01b81526004016113f19190612d75565b600060405180830381865afa15801561140e573d6000803e3d6000fd5b505050506040513d6000823e3d601f19601f820116820180604052508101906114379190612b13565b9650965096509650965096509650919395979092949650565b60008060009054906101000a900473ffffffffffffffffffffffffffffffffffffffff16905090565b60086020528060005260406000206000915090508060000154908060010154905082565b6000600260009054906101000a900473ffffffffffffffffffffffffffffffffffffffff1673ffffffffffffffffffffffffffffffffffffffff166370a08231306040518263ffffffff1660e01b81526004016114fa91906124cd565b602060405180830381865afa158015611517573d6000803e3d6000fd5b505050506040513d601f19601f8201168201806040525081019061153b9190612d90565b905090565b6060600660009054906101000a900473ffffffffffffffffffffffffffffffffffffffff1673ffffffffffffffffffffffffffffffffffffffff1663b4184e706040518163ffffffff1660e01b8152600401600060405180830381865afa1580156115af573d6000803e3d6000fd5b505050506040513d6000823e3d601f19601f820116820180604052508101906115d89190612e85565b905090565b60096020528060005260406000206000915054906101000a900460ff1681565b6000600560009054906101000a900473ffffffffffffffffffffffffffffffffffffffff16905090565b6000806000806000600860008781526020019081526020016000206000015493506008600087815260200190815260200160002060010154925061168783611679606487611e5c90919063ffffffff16565b611e7290919063ffffffff16565b91506116af846116a1606486611e5c90919063ffffffff16565b611e7290919063ffffffff16565b905080945050505050919050565b33600073ffffffffffffffffffffffffffffffffffffffff168173ffffffffffffffffffffffffffffffffffffffff160361172d576040517f08c379a000000000000000000000000000000000000000000000000000000000815260040161172490612782565b60405180910390fd5b600260015403611772576040517f08c379a000000000000000000000000000000000000000000000000000000000815260040161176990612f1a565b60405180910390fd5b6002600181905550600660009054906101000a900473ffffffffffffffffffffffffffffffffffffffff1673ffffffffffffffffffffffffffffffffffffffff1663118e58bd856040518263ffffffff1660e01b81526004016117d59190612d75565b602060405180830381865afa1580156117f2573d6000803e3d6000fd5b505050506040513d601f19601f820116820180604052508101906118169190612709565b611855576040517f08c379a000000000000000000000000000000000000000000000000000000000815260040161184c90612f86565b60405180910390fd5b611860338585611f80565b61189f576040517f08c379a000000000000000000000000000000000000000000000000000000000815260040161189690612ff2565b60405180910390fd5b6118a884611f8d565b6118e7576040517f08c379a00000000000000000000000000000000000000000000000000000000081526004016118de9061305e565b60405180910390fd5b6000821161192a576040517f08c379a0000000000000000000000000000000000000000000000000000000008152600401611921906130ca565b60405180910390fd5b600a60003373ffffffffffffffffffffffffffffffffffffffff1673ffffffffffffffffffffffffffffffffffffffff168152602001908152602001600020600201548211156119af576040517f08c379a00000000000000000000000000000000000000000000000000000000081526004016119a69061315c565b60405180910390fd5b60008360000b03611a02576119e3826008600087815260200190815260200160002060000154611ea690919063ffffffff16565b6008600086815260200190815260200160002060000181905550611a46565b611a2b826008600087815260200190815260200160002060010154611ea690919063ffffffff16565b60086000868152602001908152602001600020600101819055505b60006004600086815260200190815260200160002090508060405180608001604052803373ffffffffffffffffffffffffffffffffffffffff1681526020018781526020018581526020018660000b815250908060018154018082558091505060019003906000526020600020906004020160009091909190915060008201518160000160006101000a81548173ffffffffffffffffffffffffffffffffffffffff021916908373ffffffffffffffffffffffffffffffffffffffff160217905550602082015181600101556040820151816002015560608201518160030160006101000a81548160ff021916908360000b60ff1602179055505050611b9783600a60003373ffffffffffffffffffffffffffffffffffffffff1673ffffffffffffffffffffffffffffffffffffffff16815260200190815260200160002060020154611e8890919063ffffffff16565b600a60003373ffffffffffffffffffffffffffffffffffffffff1673ffffffffffffffffffffffffffffffffffffffff16815260200190815260200160002060020181905550611c3283600a60003373ffffffffffffffffffffffffffffffffffffffff1673ffffffffffffffffffffffffffffffffffffffff16815260200190815260200160002060010154611ea690919063ffffffff16565b600a60003373ffffffffffffffffffffffffffffffffffffffff1673ffffffffffffffffffffffffffffffffffffffff168152602001908152602001600020600101819055506000600360003373ffffffffffffffffffffffffffffffffffffffff1673ffffffffffffffffffffffffffffffffffffffff1681526020019081526020016000209050808690806001815401808255809150506001900390600052602060002001600090919091909150557f8b25b88f52cfa9737af5a016457e58c0c6232999d2cd00ac17a9d29e89b30ed586338787604051611d18949392919061317c565b60405180910390a150506001808190555050505050565b600a6020528060005260406000206000915090508060000154908060010154908060020154908060030154908060040154905085565b611d6d611e9e565b73ffffffffffffffffffffffffffffffffffffffff16611d8b611450565b73ffffffffffffffffffffffffffffffffffffffff1614611de1576040517f08c379a0000000000000000000000000000000000000000000000000000000008152600401611dd8906127ee565b60405180910390fd5b600073ffffffffffffffffffffffffffffffffffffffff168173ffffffffffffffffffffffffffffffffffffffff1603611e50576040517f08c379a0000000000000000000000000000000000000000000000000000000008152600401611e4790613233565b60405180910390fd5b611e5981611ebc565b50565b60008183611e6a9190612cd3565b905092915050565b60008183611e809190613282565b905092915050565b60008183611e9691906132b3565b905092915050565b600033905090565b60008183611eb491906132e7565b905092915050565b60008060009054906101000a900473ffffffffffffffffffffffffffffffffffffffff169050816000806101000a81548173ffffffffffffffffffffffffffffffffffffffff021916908373ffffffffffffffffffffffffffffffffffffffff1602179055508173ffffffffffffffffffffffffffffffffffffffff168173ffffffffffffffffffffffffffffffffffffffff167f8be0079c531659141344cd1fd0a4f28419497f9722a3daafe3b4186f6b6457e060405160405180910390a35050565b6000600190509392505050565b600060019050919050565b6000604051905090565b600080fd5b600080fd5b6000819050919050565b611fbf81611fac565b8114611fca57600080fd5b50565b600081359050611fdc81611fb6565b92915050565b600060208284031215611ff857611ff7611fa2565b5b600061200684828501611fcd565b91505092915050565b6000819050919050565b6120228161200f565b82525050565b600060208201905061203d6000830184612019565b92915050565b61204c8161200f565b811461205757600080fd5b50565b60008135905061206981612043565b92915050565b60006020828403121561208557612084611fa2565b5b60006120938482850161205a565b91505092915050565b60008115159050919050565b6120b18161209c565b82525050565b60006020820190506120cc60008301846120a8565b92915050565b600073ffffffffffffffffffffffffffffffffffffffff82169050919050565b60006120fd826120d2565b9050919050565b61210d816120f2565b811461211857600080fd5b50565b60008135905061212a81612104565b92915050565b6000806040838503121561214757612146611fa2565b5b60006121558582860161211b565b92505060206121668582860161205a565b9150509250929050565b60006020828403121561218657612185611fa2565b5b60006121948482850161211b565b91505092915050565b6121a681611fac565b82525050565b600081519050919050565b600082825260208201905092915050565b60005b838110156121e65780820151818401526020810190506121cb565b838111156121f5576000848401525b50505050565b6000601f19601f8301169050919050565b6000612217826121ac565b61222181856121b7565b93506122318185602086016121c8565b61223a816121fb565b840191505092915050565b7f4e487b7100000000000000000000000000000000000000000000000000000000600052602160045260246000fd5b6004811061228557612284612245565b5b50565b600081905061229682612274565b919050565b60006122a682612288565b9050919050565b6122b68161229b565b82525050565b60008160000b9050919050565b6122d2816122bc565b82525050565b600060e0820190506122ed600083018a61219d565b81810360208301526122ff818961220c565b90508181036040830152612313818861220c565b90508181036060830152612327818761220c565b90506123366080830186612019565b61234360a08301856122ad565b61235060c08301846122c9565b98975050505050505050565b600081519050919050565b600082825260208201905092915050565b6000819050602082019050919050565b612391816120f2565b82525050565b6123a081611fac565b82525050565b6123af8161200f565b82525050565b6123be816122bc565b82525050565b6080820160008201516123da6000850182612388565b5060208201516123ed6020850182612397565b50604082015161240060408501826123a6565b50606082015161241360608501826123b5565b50505050565b600061242583836123c4565b60808301905092915050565b6000602082019050919050565b60006124498261235c565b6124538185612367565b935061245e83612378565b8060005b8381101561248f5781516124768882612419565b975061248183612431565b925050600181019050612462565b5085935050505092915050565b600060208201905081810360008301526124b6818461243e565b905092915050565b6124c7816120f2565b82525050565b60006020820190506124e260008301846124be565b92915050565b60006040820190506124fd6000830185612019565b61250a6020830184612019565b9392505050565b600081519050919050565b600082825260208201905092915050565b6000819050602082019050919050565b60006125498383612397565b60208301905092915050565b6000602082019050919050565b600061256d82612511565b612577818561251c565b93506125828361252d565b8060005b838110156125b357815161259a888261253d565b97506125a583612555565b925050600181019050612586565b5085935050505092915050565b600060208201905081810360008301526125da8184612562565b905092915050565b6125eb816122bc565b81146125f657600080fd5b50565b600081359050612608816125e2565b92915050565b60008060006060848603121561262757612626611fa2565b5b600061263586828701611fcd565b9350506020612646868287016125f9565b92505060406126578682870161205a565b9150509250925092565b600060a0820190506126766000830188612019565b6126836020830187612019565b6126906040830186612019565b61269d6060830185612019565b6126aa6080830184612019565b9695505050505050565b60006040820190506126c960008301856124be565b6126d66020830184612019565b9392505050565b6126e68161209c565b81146126f157600080fd5b50565b600081519050612703816126dd565b92915050565b60006020828403121561271f5761271e611fa2565b5b600061272d848285016126f4565b91505092915050565b7f416464726573732030206973206e6f7420616c6c6f7765640000000000000000600082015250565b600061276c6018836121b7565b915061277782612736565b602082019050919050565b6000602082019050818103600083015261279b8161275f565b9050919050565b7f4f776e61626c653a2063616c6c6572206973206e6f7420746865206f776e6572600082015250565b60006127d86020836121b7565b91506127e3826127a2565b602082019050919050565b60006020820190508181036000830152612807816127cb565b9050919050565b7f616c726561647920726567697374657265640000000000000000000000000000600082015250565b60006128446012836121b7565b915061284f8261280e565b602082019050919050565b6000602082019050818103600083015261287381612837565b9050919050565b7f416d6f756e74206465706f7369746564206d757374206265203e3d2031300000600082015250565b60006128b0601e836121b7565b91506128bb8261287a565b602082019050919050565b600060208201905081810360008301526128df816128a3565b9050919050565b7f746f6b656e206e6f742072656769737465726564000000000000000000000000600082015250565b600061291c6014836121b7565b9150612927826128e6565b602082019050919050565b6000602082019050818103600083015261294b8161290f565b9050919050565b600060608201905061296760008301866124be565b61297460208301856124be565b6129816040830184612019565b949350505050565b60008151905061299881611fb6565b92915050565b600080fd5b600080fd5b7f4e487b7100000000000000000000000000000000000000000000000000000000600052604160045260246000fd5b6129e0826121fb565b810181811067ffffffffffffffff821117156129ff576129fe6129a8565b5b80604052505050565b6000612a12611f98565b9050612a1e82826129d7565b919050565b600067ffffffffffffffff821115612a3e57612a3d6129a8565b5b612a47826121fb565b9050602081019050919050565b6000612a67612a6284612a23565b612a08565b905082815260208101848484011115612a8357612a826129a3565b5b612a8e8482856121c8565b509392505050565b600082601f830112612aab57612aaa61299e565b5b8151612abb848260208601612a54565b91505092915050565b600081519050612ad381612043565b92915050565b60048110612ae657600080fd5b50565b600081519050612af881612ad9565b92915050565b600081519050612b0d816125e2565b92915050565b600080600080600080600060e0888a031215612b3257612b31611fa2565b5b6000612b408a828b01612989565b975050602088015167ffffffffffffffff811115612b6157612b60611fa7565b5b612b6d8a828b01612a96565b965050604088015167ffffffffffffffff811115612b8e57612b8d611fa7565b5b612b9a8a828b01612a96565b955050606088015167ffffffffffffffff811115612bbb57612bba611fa7565b5b612bc78a828b01612a96565b9450506080612bd88a828b01612ac4565b93505060a0612be98a828b01612ae9565b92505060c0612bfa8a828b01612afe565b91505092959891949750929550565b7f726573756c7473206e6f74206465636c61726564207965740000000000000000600082015250565b6000612c3f6018836121b7565b9150612c4a82612c09565b602082019050919050565b60006020820190508181036000830152612c6e81612c32565b9050919050565b7f4e487b7100000000000000000000000000000000000000000000000000000000600052603260045260246000fd5b7f4e487b7100000000000000000000000000000000000000000000000000000000600052601160045260246000fd5b6000612cde8261200f565b9150612ce98361200f565b9250817fffffffffffffffffffffffffffffffffffffffffffffffffffffffffffffffff0483118215151615612d2257612d21612ca4565b5b828202905092915050565b6000612d388261200f565b91507fffffffffffffffffffffffffffffffffffffffffffffffffffffffffffffffff8203612d6a57612d69612ca4565b5b600182019050919050565b6000602082019050612d8a600083018461219d565b92915050565b600060208284031215612da657612da5611fa2565b5b6000612db484828501612ac4565b91505092915050565b600067ffffffffffffffff821115612dd857612dd76129a8565b5b602082029050602081019050919050565b600080fd5b6000612e01612dfc84612dbd565b612a08565b90508083825260208201905060208402830185811115612e2457612e23612de9565b5b835b81811015612e4d5780612e398882612989565b845260208401935050602081019050612e26565b5050509392505050565b600082601f830112612e6c57612e6b61299e565b5b8151612e7c848260208601612dee565b91505092915050565b600060208284031215612e9b57612e9a611fa2565b5b600082015167ffffffffffffffff811115612eb957612eb8611fa7565b5b612ec584828501612e57565b91505092915050565b7f5265656e7472616e637947756172643a207265656e7472616e742063616c6c00600082015250565b6000612f04601f836121b7565b9150612f0f82612ece565b602082019050919050565b60006020820190508181036000830152612f3381612ef7565b9050919050565b7f537065636966696564206576656e74206e6f7420666f756e6400000000000000600082015250565b6000612f706019836121b7565b9150612f7b82612f3a565b602082019050919050565b60006020820190508181036000830152612f9f81612f63565b9050919050565b7f426574206973206e6f742076616c696400000000000000000000000000000000600082015250565b6000612fdc6010836121b7565b9150612fe782612fa6565b602082019050919050565b6000602082019050818103600083015261300b81612fcf565b9050919050565b7f4576656e74206e6f74206f70656e20666f722062657474696e67000000000000600082015250565b6000613048601a836121b7565b915061305382613012565b602082019050919050565b600060208201905081810360008301526130778161303b565b9050919050565b7f416d6f756e74206d7573742062652067726561746572207468616e2030000000600082015250565b60006130b4601d836121b7565b91506130bf8261307e565b602082019050919050565b600060208201905081810360008301526130e3816130a7565b9050919050565b7f416d6f756e74206d7573742062652067726561746572207468616e206176616c60008201527f6961626c6520616d6f756e740000000000000000000000000000000000000000602082015250565b6000613146602c836121b7565b9150613151826130ea565b604082019050919050565b6000602082019050818103600083015261317581613139565b9050919050565b6000608082019050613191600083018761219d565b61319e60208301866124be565b6131ab60408301856122c9565b6131b86060830184612019565b95945050505050565b7f4f776e61626c653a206e6577206f776e657220697320746865207a65726f206160008201527f6464726573730000000000000000000000000000000000000000000000000000602082015250565b600061321d6026836121b7565b9150613228826131c1565b604082019050919050565b6000602082019050818103600083015261324c81613210565b9050919050565b7f4e487b7100000000000000000000000000000000000000000000000000000000600052601260045260246000fd5b600061328d8261200f565b91506132988361200f565b9250826132a8576132a7613253565b5b828204905092915050565b60006132be8261200f565b91506132c98361200f565b9250828210156132dc576132db612ca4565b5b828203905092915050565b60006132f28261200f565b91506132fd8361200f565b9250827fffffffffffffffffffffffffffffffffffffffffffffffffffffffffffffffff0382111561333257613331612ca4565b5b82820190509291505056fea2646970667358221220376a07e565e3665bf776dd53d999bb3fd66655cf63194d74b8489de7af20086b64736f6c634300080d0033",
  "immutableReferences": {},
  "source": "// SPDX-License-Identifier: MIT\npragma solidity ^0.8.4;\n\nimport \"@openzeppelin/contracts/access/Ownable.sol\";\nimport \"@openzeppelin/contracts/security/ReentrancyGuard.sol\";\nimport \"@openzeppelin/contracts/token/ERC20/IERC20.sol\";\nimport \"@openzeppelin/contracts/utils/math/SafeMath.sol\";\n\nimport \"./OracleInterface.sol\";\nimport \"./BetOracle.sol\";\n\n/**\n * This Ethereum smart-contract takes bets placed on sport events.\n * It then invests all bets deposits for a given event (pot) in DeFi.\n * Then once the event outcome is confirmed,\n * it makes the accrued interests ready for the winners\n * to withdraw proportionnaly to their initial stake.\n * Players do not loose their stake.\n *\n * @notice Takes bets and handles payouts for sport events\n * @title  a Smart-Contract in charge of handling bets on a sport event outcome where players do not loose their stake and winners earn the interests accrued on the stakes.\n * @author Tanteli, block74\n */\ncontract Bet is Ownable, ReentrancyGuard {\n    /**\n     * @notice Safe guarding contract from integer\n     * overflow and underflow vulnerabilities.\n     */\n    using SafeMath for uint256;\n\n    /**\n     * @dev An instance of ERC20 DAI Token\n     */\n    IERC20 private Dai;\n\n    /**\n     * @dev list of all bets per player, ie. a map composed (player address => bet id) pairs\n     */\n    mapping(address => bytes32[]) private userToBets;\n\n    /**\n     *  @dev for any given event, get a list of all bets that have been made for that event\n     *    map composed of (event id => array of bets) pairs\n     */\n    mapping(bytes32 => Bet[]) private eventToBets;\n\n    /**\n     * @dev Address of the sport events Oracle\n     */\n    address internal oracleAddress = address(0);\n\n    /**\n     *  @dev Instance of the sport events Oracle (used to register sport events get their outcome).\n     */\n    OracleInterface internal betOracle = OracleInterface(oracleAddress);\n\n    /**\n     * @dev minimum bet amount\n     */\n    uint256 internal minimumBet = 0.1 ether;\n\n    /**\n     * @dev payload of a bet on a sport event\n     */\n    struct Bet {\n        address user; // who placed it\n        bytes32 eventId; // id of the sport event as registered in the Oracle\n        uint256 amount; // bet amount\n        int8 chosenWinner; // Index of the team that will win according to the player\n    }\n\n    struct AmountonBet {\n        uint256 totalAmountOnTeamA;\n        uint256 totalAmountOnTeamB;\n    }\n\n    //mapping from event id to bet on each team\n    mapping(bytes32 => AmountonBet) public userBet;\n\n    // mapping from token address to bool\n    mapping(address => bool) public tokenRegistered;\n    /**\n     * @dev payload of user balance and bets\n     */\n    struct UserBalanceInfo {\n        uint256 depositedAmount;\n        uint256 ongoingBetAmount;\n        uint256 balanceAvailable;\n        uint256 balancewithdrawn;\n        uint256 balanceLost;\n    }\n    /**\n     * @notice mapping from user address to user bal info.\n     */\n    mapping(address => UserBalanceInfo) public userTokenBal;\n\n    /**\n     * @dev Possible outcomes for a sport event\n     */\n    enum BettableOutcome {\n        Team1,\n        Team2\n    }\n\n    /**\n     * @dev check that the passed in address is not 0.\n     */\n    modifier notAddress0(address _address) {\n        require(_address != address(0), \"Address 0 is not allowed\");\n        _;\n    }\n\n    /**\n     * @dev Sent once the Sport Event Oracle is set\n     */\n    event OracleAddressSet(address _address);\n\n    /**\n     * @dev Sent when once a bet is placed\n     */\n    event BetPlaced(\n        bytes32 _eventId,\n        address _player,\n        int8 _chosenWinner,\n        uint256 _amount\n    );\n\n    /**\n     * @param _tokenAddress the address of the deployed ERC20 DAI token\n     */\n    constructor(address _tokenAddress, address _oracleAddress)\n        notAddress0(_tokenAddress)\n    {\n        Dai = IERC20(_tokenAddress);\n        setOracleAddress(_oracleAddress);\n    }\n\n    /**\n     * @notice register token\n     * @param tokenAddress address of token\n     * @return success true if success\n     */\n    function registerToken(address tokenAddress)\n        public\n        onlyOwner\n        returns (bool success)\n    {\n        require(tokenRegistered[tokenAddress] == false, \"already registered\");\n        tokenRegistered[tokenAddress] = true;\n        return true;\n    }\n\n    /**\n     * @return the DAI balance of the contract\n     */\n    function getContractDAIBalance() public view returns (uint256) {\n        return Dai.balanceOf(address(this));\n    }\n\n    /**\n     * @return oddsTeamA the odds on TeamA\n     */ \n    function getOddsA(bytes32 eventId)\n        public\n        view\n        returns (uint256 oddsTeamA)\n    {\n        uint256 totalAmountPlacedTeamA1;\n        uint256 totalAmountPlacedTeamB1;\n        uint256 currentoddsTeamA;\n        uint256 currentoddsTeamB;\n        totalAmountPlacedTeamA1 = userBet[eventId].totalAmountOnTeamA;\n        totalAmountPlacedTeamB1 = userBet[eventId].totalAmountOnTeamB;\n        currentoddsTeamA = totalAmountPlacedTeamA1.mul(100).div(\n            totalAmountPlacedTeamB1\n        );\n        currentoddsTeamB = totalAmountPlacedTeamB1.mul(100).div(\n            totalAmountPlacedTeamA1\n        );\n        return (currentoddsTeamA);\n    }\n\n    /**\n     * @return oddsTeamA the odds on TeamB\n     */\n    function getOddsB(bytes32 eventId)\n        public\n        view\n        returns (uint256 oddsTeamA)\n    {\n        uint256 totalAmountPlacedTeamA1;\n        uint256 totalAmountPlacedTeamB1;\n        uint256 currentoddsTeamA;\n        uint256 currentoddsTeamB;\n        totalAmountPlacedTeamA1 = userBet[eventId].totalAmountOnTeamA;\n        totalAmountPlacedTeamB1 = userBet[eventId].totalAmountOnTeamB;\n        currentoddsTeamA = totalAmountPlacedTeamA1.mul(100).div(\n            totalAmountPlacedTeamB1\n        );\n        currentoddsTeamB = totalAmountPlacedTeamB1.mul(100).div(\n            totalAmountPlacedTeamA1\n        );\n        return (currentoddsTeamB);\n    }\n\n    /**\n     * @notice Moves `_amount` tokens from `_sender` to this contract\n     * @param tokenAddress the address that owns  the tokens\n     * @param _amount the amount to be deposited\n     */\n    function deposit(address tokenAddress, uint256 _amount)\n        public\n        notAddress0(msg.sender)\n    {\n        // At least a minimum amount is required to be deposited\n        require(_amount >= 10, \"Amount deposited must be >= 10\");\n        require(tokenRegistered[tokenAddress] == true, \"token not registered\");\n        uint256 depositAmount = userTokenBal[msg.sender].depositedAmount.add(\n            _amount\n        );\n        uint256 amountAvaliable = userTokenBal[msg.sender].balanceAvailable.add(\n            _amount\n        );\n        UserBalanceInfo memory newDeposit = UserBalanceInfo(\n            depositAmount,\n            0,\n            amountAvaliable,\n            0,\n            0\n        );\n        userTokenBal[msg.sender] = newDeposit;\n        IERC20(tokenAddress).transferFrom(msg.sender, address(this), _amount);\n    }\n\n    /**\n     * @notice Sets `_amount` as the allowance of `_spender` over the caller's tokens.\n     * @param _spender an address allowed to spend user's DAI\n     * @param _amount the amount approved to be used by _spender\n     */\n    function approve(address _spender, uint256 _amount)\n        external\n        notAddress0(_spender)\n    {\n        Dai.approve(_spender, _amount);\n    }\n\n    /**\n     * @notice sets the address of the sport event bet oracle contract to use\n     * @dev setting a wrong address may result in false return value, or error\n     * @param _oracleAddress the address of the sport event bet oracle\n     */\n    function setOracleAddress(address _oracleAddress)\n        internal\n        onlyOwner\n        notAddress0(_oracleAddress)\n        returns (bool)\n    {\n        oracleAddress = _oracleAddress;\n        betOracle = OracleInterface(oracleAddress);\n        emit OracleAddressSet(oracleAddress);\n\n        return betOracle.testConnection();\n    }\n\n    /**\n     * @notice for testing purposes: make sure that the sport event oracle is callable\n     */\n    function testOracleConnection() public view returns (bool) {\n        return oracleAddress != address(0) && betOracle.testConnection();\n    }\n\n    /**\n     * @return the address of the oracle we use to get the sport events and their outcomes\n     */\n    function getOracleAddress() external view returns (address) {\n        return oracleAddress;\n    }\n\n    /**\n     * @notice determines whether or not the user has already bet on the given sport event\n     * @param _user address of a player\n     * @param _eventId id of a event\n     * @param _chosenWinner the index of the participant to bet on (to win)\n     */\n    function _betIsValid(\n        address _user,\n        bytes32 _eventId,\n        int8 _chosenWinner\n    ) private pure returns (bool) {\n        // if (userToBets[_user].length == 0) {\n        //     userToBets[_user]\n        // }\n        return true;\n    }\n\n    /**\n     * @notice determines whether or not bets may still be accepted for the given match\n     * @param _eventId id of an event\n     */\n    function _eventOpenForBetting(bytes32 _eventId)\n        private\n        pure\n        returns (bool)\n    {\n        return true;\n    }\n\n    /**\n     * @notice gets a list ids of all currently bettable events\n     * @return pendingEvents the list of pending sport events\n     */\n    function getBettableEvents()\n        public\n        view\n        returns (bytes32[] memory pendingEvents)\n    {\n        return betOracle.getPendingEvents();\n    }\n\n    /**\n     * @notice returns the full data of the specified event\n     * @param _eventId the id of the desired event\n     * @return id   the id of the event\n     * @return name the name of the event\n     * @return teamAname\n     * @return teamBname\n     * @return date when the event takes place\n     * @return outcome an integer that represents the event outcome\n     * @return winner the index of the winner\n     */\n    function getEvent(bytes32 _eventId)\n        public\n        view\n        returns (\n            bytes32 id,\n            string memory name,\n            string memory teamAname,\n            string memory teamBname,\n            uint256 date,\n            OracleInterface.EventOutcome outcome,\n            int8 winner\n        )\n    {\n        return betOracle.getEvent(_eventId);\n    }\n\n    /**\n     * @notice returns the full data of the most recent bettable sport event\n     * @return id   the id of the event\n     * @return name the name of the event\n     * @return teamAname\n     * @return teamBname\n     * @return date when the event takes place\n     * @return outcome an integer that represents the event outcome\n     * @return winner the index of the winner (0 = TeamA, 1 = TeamB)\n     */\n\n    //bytes32,string memory,string memory,string memory,uint256,enum OracleInterface.EventOutcome,int8\n    function getLatestEvent()\n        public\n        view\n        returns (\n            bytes32 id,\n            string memory name,\n            string memory teamAname,\n            string memory teamBname,\n            uint256 date,\n            OracleInterface.EventOutcome outcome,\n            int8 winner\n        )\n    {\n        return betOracle.getLatestEvent(true);\n    }\n\n    /**\n     * @notice places a bet on the given event\n     * @param _eventId      id of the sport event on which to bet\n     * @param _chosenWinner index of the supposed winner team\n     */\n    function placeBet(\n        bytes32 _eventId,\n        int8 _chosenWinner,\n        uint256 _amount\n    ) public payable notAddress0(msg.sender) nonReentrant {\n        // At least a minimum amout is required to bet\n        // require(msg.value >= minimumBet, \"Bet amount must be >= minimum bet\");\n\n        // // Make sure this is sport event exists (ie. already registered in the Oracle)\n        require(betOracle.eventExists(_eventId), \"Specified event not found\");\n\n        // The chosen winner must fall within the defined number of participants for this event\n        require(\n            _betIsValid(msg.sender, _eventId, _chosenWinner),\n            \"Bet is not valid\"\n        );\n\n        // Event must still be open for betting\n        require(_eventOpenForBetting(_eventId), \"Event not open for betting\");\n\n        // Amount must be greater than 0\n        require(_amount > 0, \"Amount must be greater than 0\");\n\n        // Amount must be greater than balanceAvaliable\n\n        require(\n            _amount <= userTokenBal[msg.sender].balanceAvailable,\n            \"Amount must be greater than avaliable amount\"\n        );\n\n        if (_chosenWinner == 0) {\n            userBet[_eventId].totalAmountOnTeamA = userBet[_eventId]\n                .totalAmountOnTeamA\n                .add(_amount);\n        } else {\n            userBet[_eventId].totalAmountOnTeamB = userBet[_eventId]\n                .totalAmountOnTeamB\n                .add(_amount);\n        }\n\n        // add the new bet\n        Bet[] storage bets = eventToBets[_eventId];\n        bets.push(Bet(msg.sender, _eventId, _amount, _chosenWinner));\n        userTokenBal[msg.sender].balanceAvailable = userTokenBal[msg.sender]\n            .balanceAvailable\n            .sub(_amount);\n        userTokenBal[msg.sender].ongoingBetAmount = userTokenBal[msg.sender]\n            .ongoingBetAmount\n            .add(_amount);\n\n        // add the mapping\n        bytes32[] storage userBets = userToBets[msg.sender];\n        userBets.push(_eventId);\n\n        emit BetPlaced(\n            _eventId,\n            msg.sender, // player\n            _chosenWinner,\n            _amount // bet amount\n        );\n    }\n\n    /**\n     * @notice send winner price\n     */\n    function withdrawAmount(uint256 amount) public returns (bool success) {\n        userTokenBal[msg.sender].balanceAvailable = userTokenBal[msg.sender]\n            .balanceAvailable\n            .sub(amount);\n        Dai.transfer(msg.sender, amount);\n        return true;\n    }\n\n    /**\n     * @notice bet lists of the given event\n     * @param eventId id of event\n     */\n    function eventClosure(bytes32 eventId) public returns (Bet[] memory) {\n        (\n            bytes32 id,\n            string memory name,\n            string memory teamAname,\n            string memory teamBname,\n            uint256 date,\n            OracleInterface.EventOutcome outcome,\n            int8 winner\n        ) = getEvent(eventId);\n        require(\n            outcome == OracleInterface.EventOutcome.Decided,\n            \"results not declared yet\"\n        );\n        uint256 multiplicationfactor;\n        for (uint256 i = 0; i < eventToBets[eventId].length; i++) {\n            if (eventToBets[eventId][0].chosenWinner == winner) {\n                if (winner == 0) {\n                    multiplicationfactor = getOddsA(eventId);\n                } else {\n                    multiplicationfactor = getOddsB(eventId);\n                }\n                userTokenBal[eventToBets[eventId][0].user].balanceAvailable = userTokenBal[msg.sender].balanceAvailable.add((multiplicationfactor * eventToBets[eventId][0].amount).div(100));\n                userTokenBal[eventToBets[eventId][0].user].ongoingBetAmount = userTokenBal[msg.sender].ongoingBetAmount.sub(eventToBets[eventId][0].amount);\n            }\n        }\n\n        return eventToBets[eventId];\n    }\n\n    /**\n     *  @notice This smart-contract accepts DAI ERC20 token\n     */\n    receive() external payable {}\n}\n",
  "sourcePath": "/home/sunny/Github/Circle-BetApp/contracts/Bet.sol",
  "compiler": {
    "name": "solc",
    "version": "0.8.13+commit.abaa5c0e.Emscripten.clang"
  },
  "schemaVersion": "3.4.7",
  "updatedAt": "2022-04-09T08:19:16.231Z",
  "networkType": "ethereum",
  "devdoc": {
    "author": "Tanteli, block74",
    "events": {
      "BetPlaced(bytes32,address,int8,uint256)": {
        "details": "Sent when once a bet is placed"
      },
      "OracleAddressSet(address)": {
        "details": "Sent once the Sport Event Oracle is set"
      }
    },
    "kind": "dev",
    "methods": {
      "approve(address,uint256)": {
        "params": {
          "_amount": "the amount approved to be used by _spender",
          "_spender": "an address allowed to spend user's DAI"
        }
      },
      "constructor": {
        "params": {
          "_tokenAddress": "the address of the deployed ERC20 DAI token"
        }
      },
      "deposit(address,uint256)": {
        "params": {
          "_amount": "the amount to be deposited",
          "tokenAddress": "the address that owns  the tokens"
        }
      },
      "eventClosure(bytes32)": {
        "params": {
          "eventId": "id of event"
        }
      },
      "getBettableEvents()": {
        "returns": {
          "pendingEvents": "the list of pending sport events"
        }
      },
      "getContractDAIBalance()": {
        "returns": {
          "_0": "the DAI balance of the contract"
        }
      },
      "getEvent(bytes32)": {
        "params": {
          "_eventId": "the id of the desired event"
        },
        "returns": {
          "date": "when the event takes place",
          "id": "  the id of the event",
          "name": "the name of the event",
          "outcome": "an integer that represents the event outcome",
          "teamAname": "teamAname",
          "teamBname": "teamBname",
          "winner": "the index of the winner"
        }
      },
      "getLatestEvent()": {
        "returns": {
          "date": "when the event takes place",
          "id": "  the id of the event",
          "name": "the name of the event",
          "outcome": "an integer that represents the event outcome",
          "teamAname": "teamAname",
          "teamBname": "teamBname",
          "winner": "the index of the winner (0 = TeamA, 1 = TeamB)"
        }
      },
      "getOddsA(bytes32)": {
        "returns": {
          "oddsTeamA": "the odds on TeamA"
        }
      },
      "getOddsB(bytes32)": {
        "returns": {
          "oddsTeamA": "the odds on TeamB"
        }
      },
      "getOracleAddress()": {
        "returns": {
          "_0": "the address of the oracle we use to get the sport events and their outcomes"
        }
      },
      "owner()": {
        "details": "Returns the address of the current owner."
      },
      "placeBet(bytes32,int8,uint256)": {
        "params": {
          "_chosenWinner": "index of the supposed winner team",
          "_eventId": "id of the sport event on which to bet"
        }
      },
      "registerToken(address)": {
        "params": {
          "tokenAddress": "address of token"
        },
        "returns": {
          "success": "true if success"
        }
      },
      "renounceOwnership()": {
        "details": "Leaves the contract without owner. It will not be possible to call `onlyOwner` functions anymore. Can only be called by the current owner. NOTE: Renouncing ownership will leave the contract without an owner, thereby removing any functionality that is only available to the owner."
      },
      "transferOwnership(address)": {
        "details": "Transfers ownership of the contract to a new account (`newOwner`). Can only be called by the current owner."
      }
    },
    "stateVariables": {
      "Dai": {
        "details": "An instance of ERC20 DAI Token"
      },
      "betOracle": {
        "details": "Instance of the sport events Oracle (used to register sport events get their outcome)."
      },
      "eventToBets": {
        "details": "for any given event, get a list of all bets that have been made for that event    map composed of (event id => array of bets) pairs"
      },
      "minimumBet": {
        "details": "minimum bet amount"
      },
      "oracleAddress": {
        "details": "Address of the sport events Oracle"
      },
      "userToBets": {
        "details": "list of all bets per player, ie. a map composed (player address => bet id) pairs"
      }
    },
    "title": "a Smart-Contract in charge of handling bets on a sport event outcome where players do not loose their stake and winners earn the interests accrued on the stakes.",
    "version": 1
  },
  "userdoc": {
    "kind": "user",
    "methods": {
      "approve(address,uint256)": {
        "notice": "Sets `_amount` as the allowance of `_spender` over the caller's tokens."
      },
      "deposit(address,uint256)": {
        "notice": "Moves `_amount` tokens from `_sender` to this contract"
      },
      "eventClosure(bytes32)": {
        "notice": "bet lists of the given event"
      },
      "getBettableEvents()": {
        "notice": "gets a list ids of all currently bettable events"
      },
      "getEvent(bytes32)": {
        "notice": "returns the full data of the specified event"
      },
      "getLatestEvent()": {
        "notice": "returns the full data of the most recent bettable sport event"
      },
      "placeBet(bytes32,int8,uint256)": {
        "notice": "places a bet on the given event"
      },
      "registerToken(address)": {
        "notice": "register token"
      },
      "testOracleConnection()": {
        "notice": "for testing purposes: make sure that the sport event oracle is callable"
      },
      "userTokenBal(address)": {
        "notice": "mapping from user address to user bal info."
      },
      "withdrawAmount(uint256)": {
        "notice": "send winner price"
      }
    },
    "notice": "This Ethereum smart-contract takes bets placed on sport events. It then invests all bets deposits for a given event (pot) in DeFi. Then once the event outcome is confirmed, it makes the accrued interests ready for the winners to withdraw proportionnaly to their initial stake. Players do not loose their stake.Takes bets and handles payouts for sport events",
    "version": 1
  }
}