{
  "contractName": "BetOracle",
  "abi": [
    {
      "anonymous": false,
      "inputs": [
        {
          "indexed": true,
          "internalType": "address",
          "name": "previousOwner",
          "type": "address"
        },
        {
          "indexed": true,
          "internalType": "address",
          "name": "newOwner",
          "type": "address"
        }
      ],
      "name": "OwnershipTransferred",
      "type": "event"
    },
    {
      "anonymous": false,
      "inputs": [
        {
          "indexed": false,
          "internalType": "bytes32",
          "name": "_eventId",
          "type": "bytes32"
        },
        {
          "indexed": false,
          "internalType": "string",
          "name": "name",
          "type": "string"
        },
        {
          "indexed": false,
          "internalType": "string",
          "name": "_teamAname",
          "type": "string"
        },
        {
          "indexed": false,
          "internalType": "string",
          "name": "_teamBname",
          "type": "string"
        },
        {
          "indexed": false,
          "internalType": "uint256",
          "name": "_date",
          "type": "uint256"
        },
        {
          "indexed": false,
          "internalType": "enum OracleInterface.EventOutcome",
          "name": "_eventOutcome",
          "type": "uint8"
        },
        {
          "indexed": false,
          "internalType": "int8",
          "name": "_winner",
          "type": "int8"
        }
      ],
      "name": "SportEventAdded",
      "type": "event"
    },
    {
      "inputs": [],
      "name": "owner",
      "outputs": [
        {
          "internalType": "address",
          "name": "",
          "type": "address"
        }
      ],
      "stateMutability": "view",
      "type": "function",
      "constant": true
    },
    {
      "inputs": [],
      "name": "renounceOwnership",
      "outputs": [],
      "stateMutability": "nonpayable",
      "type": "function"
    },
    {
      "inputs": [
        {
          "internalType": "address",
          "name": "newOwner",
          "type": "address"
        }
      ],
      "name": "transferOwnership",
      "outputs": [],
      "stateMutability": "nonpayable",
      "type": "function"
    },
    {
      "inputs": [
        {
          "internalType": "string",
          "name": "_name",
          "type": "string"
        },
        {
          "internalType": "string",
          "name": "_teamAname",
          "type": "string"
        },
        {
          "internalType": "string",
          "name": "_teamBname",
          "type": "string"
        },
        {
          "internalType": "uint256",
          "name": "_date",
          "type": "uint256"
        }
      ],
      "name": "addSportEvent",
      "outputs": [
        {
          "internalType": "bytes32",
          "name": "",
          "type": "bytes32"
        }
      ],
      "stateMutability": "nonpayable",
      "type": "function"
    },
    {
      "inputs": [
        {
          "internalType": "bytes32",
          "name": "_eventId",
          "type": "bytes32"
        }
      ],
      "name": "eventExists",
      "outputs": [
        {
          "internalType": "bool",
          "name": "",
          "type": "bool"
        }
      ],
      "stateMutability": "view",
      "type": "function",
      "constant": true
    },
    {
      "inputs": [
        {
          "internalType": "bytes32",
          "name": "_eventId",
          "type": "bytes32"
        },
        {
          "internalType": "enum OracleInterface.EventOutcome",
          "name": "_outcome",
          "type": "uint8"
        },
        {
          "internalType": "int8",
          "name": "_winner",
          "type": "int8"
        }
      ],
      "name": "declareOutcome",
      "outputs": [],
      "stateMutability": "nonpayable",
      "type": "function"
    },
    {
      "inputs": [],
      "name": "getPendingEvents",
      "outputs": [
        {
          "internalType": "bytes32[]",
          "name": "",
          "type": "bytes32[]"
        }
      ],
      "stateMutability": "view",
      "type": "function",
      "constant": true
    },
    {
      "inputs": [],
      "name": "getAllSportEvents",
      "outputs": [
        {
          "internalType": "bytes32[]",
          "name": "",
          "type": "bytes32[]"
        }
      ],
      "stateMutability": "view",
      "type": "function",
      "constant": true
    },
    {
      "inputs": [
        {
          "internalType": "bytes32",
          "name": "_eventId",
          "type": "bytes32"
        }
      ],
      "name": "getEvent",
      "outputs": [
        {
          "internalType": "bytes32",
          "name": "id",
          "type": "bytes32"
        },
        {
          "internalType": "string",
          "name": "name",
          "type": "string"
        },
        {
          "internalType": "string",
          "name": "teamAname",
          "type": "string"
        },
        {
          "internalType": "string",
          "name": "teamBname",
          "type": "string"
        },
        {
          "internalType": "uint256",
          "name": "date",
          "type": "uint256"
        },
        {
          "internalType": "enum OracleInterface.EventOutcome",
          "name": "outcome",
          "type": "uint8"
        },
        {
          "internalType": "int8",
          "name": "winner",
          "type": "int8"
        }
      ],
      "stateMutability": "view",
      "type": "function",
      "constant": true
    },
    {
      "inputs": [
        {
          "internalType": "bool",
          "name": "_pending",
          "type": "bool"
        }
      ],
      "name": "getLatestEvent",
      "outputs": [
        {
          "internalType": "bytes32",
          "name": "id",
          "type": "bytes32"
        },
        {
          "internalType": "string",
          "name": "name",
          "type": "string"
        },
        {
          "internalType": "string",
          "name": "teamAname",
          "type": "string"
        },
        {
          "internalType": "string",
          "name": "teamBname",
          "type": "string"
        },
        {
          "internalType": "uint256",
          "name": "date",
          "type": "uint256"
        },
        {
          "internalType": "enum OracleInterface.EventOutcome",
          "name": "outcome",
          "type": "uint8"
        },
        {
          "internalType": "int8",
          "name": "winner",
          "type": "int8"
        }
      ],
      "stateMutability": "view",
      "type": "function",
      "constant": true
    },
    {
      "inputs": [],
      "name": "getAddress",
      "outputs": [
        {
          "internalType": "address",
          "name": "",
          "type": "address"
        }
      ],
      "stateMutability": "view",
      "type": "function",
      "constant": true
    },
    {
      "inputs": [],
      "name": "testConnection",
      "outputs": [
        {
          "internalType": "bool",
          "name": "",
          "type": "bool"
        }
      ],
      "stateMutability": "pure",
      "type": "function",
      "constant": true
    }
  ],
  "bytecode": "0x608060405234801561001057600080fd5b5061002d61002261003960201b60201c565b61004160201b60201c565b60018081905550610105565b600033905090565b60008060009054906101000a900473ffffffffffffffffffffffffffffffffffffffff169050816000806101000a81548173ffffffffffffffffffffffffffffffffffffffff021916908373ffffffffffffffffffffffffffffffffffffffff1602179055508173ffffffffffffffffffffffffffffffffffffffff168173ffffffffffffffffffffffffffffffffffffffff167f8be0079c531659141344cd1fd0a4f28419497f9722a3daafe3b4186f6b6457e060405160405180910390a35050565b611e3b806101146000396000f3fe608060405234801561001057600080fd5b50600436106100b45760003560e01c80638c172fa2116100715780638c172fa2146101815780638da5cb5b146101b7578063a717e89a146101d5578063ad6d1565146101f3578063b4184e7014610223578063f2fde38b14610241576100b4565b8063118e58bd146100b957806329e54269146100e95780633412a15c1461011f57806338cc48311461013d578063715018a61461015b5780637898d33414610165575b600080fd5b6100d360048036038101906100ce91906111a3565b61025d565b6040516100e091906111eb565b60405180910390f35b61010360048036038101906100fe9190611232565b610299565b60405161011697969594939291906113b3565b60405180910390f35b61012761031b565b60405161013491906111eb565b60405180910390f35b610145610324565b6040516101529190611478565b60405180910390f35b61016361032c565b005b61017f600480360381019061017a91906114e4565b6103b4565b005b61019b600480360381019061019691906111a3565b610531565b6040516101ae97969594939291906113b3565b60405180910390f35b6101bf6107e3565b6040516101cc9190611478565b60405180910390f35b6101dd61080c565b6040516101ea91906115f5565b60405180910390f35b61020d60048036038101906102089190611778565b610901565b60405161021a9190611833565b60405180910390f35b61022b610cdf565b60405161023891906115f5565b60405180910390f35b61025b6004803603810190610256919061187a565b610eca565b005b600080600280549050036102745760009050610294565b600060036000848152602001908152602001600020549050600081119150505b919050565b600060608060606000806000806000801b9050606089156102c3576102bc610cdf565b90506102ce565b6102cb61080c565b90505b6000815111156102f757806000815181106102ec576102eb6118a7565b5b602002602001015191505b61030082610531565b98509850985098509850985098505050919395979092949650565b60006001905090565b600030905090565b610334610fc1565b73ffffffffffffffffffffffffffffffffffffffff166103526107e3565b73ffffffffffffffffffffffffffffffffffffffff16146103a8576040517f08c379a000000000000000000000000000000000000000000000000000000000815260040161039f90611922565b60405180910390fd5b6103b26000610fc9565b565b6103bc610fc1565b73ffffffffffffffffffffffffffffffffffffffff166103da6107e3565b73ffffffffffffffffffffffffffffffffffffffff1614610430576040517f08c379a000000000000000000000000000000000000000000000000000000000815260040161042790611922565b60405180910390fd5b6104398361025d565b61044257600080fd5b600061044d8461108d565b9050600060028281548110610465576104646118a7565b5b9060005260206000209060060201905060038081111561048857610487611320565b5b84600381111561049b5761049a611320565b5b036104b25760008360000b12156104b157600080fd5b5b838160050160006101000a81548160ff021916908360038111156104d9576104d8611320565b5b02179055506003808111156104f1576104f0611320565b5b84600381111561050457610503611320565b5b0361052a57828160050160016101000a81548160ff021916908360000b60ff1602179055505b5050505050565b6000606080606060008060006105468861025d565b1561076b57600060026105588a61108d565b81548110610569576105686118a7565b5b90600052602060002090600602019050806000015481600101826002018360030184600401548560050160009054906101000a900460ff168660050160019054906101000a900460000b8580546105bf90611971565b80601f01602080910402602001604051908101604052809291908181526020018280546105eb90611971565b80156106385780601f1061060d57610100808354040283529160200191610638565b820191906000526020600020905b81548152906001019060200180831161061b57829003601f168201915b5050505050955084805461064b90611971565b80601f016020809104026020016040519081016040528092919081815260200182805461067790611971565b80156106c45780601f10610699576101008083540402835291602001916106c4565b820191906000526020600020905b8154815290600101906020018083116106a757829003601f168201915b505050505094508380546106d790611971565b80601f016020809104026020016040519081016040528092919081815260200182805461070390611971565b80156107505780601f1061072557610100808354040283529160200191610750565b820191906000526020600020905b81548152906001019060200180831161073357829003601f168201915b505050505093509750975097509750975097509750506107d8565b876000807fffffffffffffffffffffffffffffffffffffffffffffffffffffffffffffffff60405180602001604052806000815250929190604051806020016040528060008152509291906040518060200160405280600081525092919096509650965096509650965096505b919395979092949650565b60008060009054906101000a900473ffffffffffffffffffffffffffffffffffffffff16905090565b6060600060028054905067ffffffffffffffff81111561082f5761082e611621565b5b60405190808252806020026020018201604052801561085d5781602001602082028036833780820191505090505b509050600060028054905011156108fa5760008060028054905090505b60008111156108f757600260018261089291906119d1565b815481106108a3576108a26118a7565b5b906000526020600020906006020160000154836001846108c39190611a05565b935083815181106108d7576108d66118a7565b5b6020026020010181815250506001816108f091906119d1565b905061087a565b50505b8091505090565b600061090b610fc1565b73ffffffffffffffffffffffffffffffffffffffff166109296107e3565b73ffffffffffffffffffffffffffffffffffffffff161461097f576040517f08c379a000000000000000000000000000000000000000000000000000000000815260040161097690611922565b60405180910390fd5b6002600154036109c4576040517f08c379a00000000000000000000000000000000000000000000000000000000081526004016109bb90611aa7565b60405180910390fd5b60026001819055506000439050828110610a13576040517f08c379a0000000000000000000000000000000000000000000000000000000008152600401610a0a90611b13565b60405180910390fd5b60008690506000815111610a5c576040517f08c379a0000000000000000000000000000000000000000000000000000000008152600401610a5390611b7f565b60405180910390fd5b600087878787604051602001610a759493929190611bfc565b604051602081830303815290604052805190602001209050610a968161025d565b15610ad6576040517f08c379a0000000000000000000000000000000000000000000000000000000008152600401610acd90611c8a565b60405180910390fd5b60026040518060e001604052808381526020018a815260200189815260200188815260200187815260200160006003811115610b1557610b14611320565b5b81526020017fffffffffffffffffffffffffffffffffffffffffffffffffffffffffffffffff60000b8152509080600181540180825580915050600190039060005260206000209060060201600090919091909150600082015181600001556020820151816001019080519060200190610b909291906110b6565b506040820151816002019080519060200190610bad9291906110b6565b506060820151816003019080519060200190610bca9291906110b6565b506080820151816004015560a08201518160050160006101000a81548160ff02191690836003811115610c0057610bff611320565b5b021790555060c08201518160050160016101000a81548160ff021916908360000b60ff160217905550505060006001600280549050610c3f91906119d1565b9050600181610c4e9190611a05565b60036000848152602001908152602001600020819055507f50f12ab9c642eb043b9fa2c460eeb969b3950c1a5c92975b8a5564514ed6d44a828a8a8a8a60007fffffffffffffffffffffffffffffffffffffffffffffffffffffffffffffffff604051610cc19796959493929190611cef565b60405180910390a18194505050505060018081905550949350505050565b60606000805b600280549050811015610d745760006003811115610d0657610d05611320565b5b60028281548110610d1a57610d196118a7565b5b906000526020600020906006020160050160009054906101000a900460ff166003811115610d4b57610d4a611320565b5b03610d6057600182610d5d9190611a05565b91505b600181610d6d9190611a05565b9050610ce5565b5060008167ffffffffffffffff811115610d9157610d90611621565b5b604051908082528060200260200182016040528015610dbf5781602001602082028036833780820191505090505b5090506000821115610ec25760008060028054905090505b6000811115610ebf5760006003811115610df457610df3611320565b5b6002600183610e0391906119d1565b81548110610e1457610e136118a7565b5b906000526020600020906006020160050160009054906101000a900460ff166003811115610e4557610e44611320565b5b03610eab576002600182610e5991906119d1565b81548110610e6a57610e696118a7565b5b906000526020600020906006020160000154838381518110610e8f57610e8e6118a7565b5b602002602001018181525050600182610ea89190611a05565b91505b600181610eb891906119d1565b9050610dd7565b50505b809250505090565b610ed2610fc1565b73ffffffffffffffffffffffffffffffffffffffff16610ef06107e3565b73ffffffffffffffffffffffffffffffffffffffff1614610f46576040517f08c379a0000000000000000000000000000000000000000000000000000000008152600401610f3d90611922565b60405180910390fd5b600073ffffffffffffffffffffffffffffffffffffffff168173ffffffffffffffffffffffffffffffffffffffff1603610fb5576040517f08c379a0000000000000000000000000000000000000000000000000000000008152600401610fac90611de5565b60405180910390fd5b610fbe81610fc9565b50565b600033905090565b60008060009054906101000a900473ffffffffffffffffffffffffffffffffffffffff169050816000806101000a81548173ffffffffffffffffffffffffffffffffffffffff021916908373ffffffffffffffffffffffffffffffffffffffff1602179055508173ffffffffffffffffffffffffffffffffffffffff168173ffffffffffffffffffffffffffffffffffffffff167f8be0079c531659141344cd1fd0a4f28419497f9722a3daafe3b4186f6b6457e060405160405180910390a35050565b6000600160036000848152602001908152602001600020546110af91906119d1565b9050919050565b8280546110c290611971565b90600052602060002090601f0160209004810192826110e4576000855561112b565b82601f106110fd57805160ff191683800117855561112b565b8280016001018555821561112b579182015b8281111561112a57825182559160200191906001019061110f565b5b509050611138919061113c565b5090565b5b8082111561115557600081600090555060010161113d565b5090565b6000604051905090565b600080fd5b600080fd5b6000819050919050565b6111808161116d565b811461118b57600080fd5b50565b60008135905061119d81611177565b92915050565b6000602082840312156111b9576111b8611163565b5b60006111c78482850161118e565b91505092915050565b60008115159050919050565b6111e5816111d0565b82525050565b600060208201905061120060008301846111dc565b92915050565b61120f816111d0565b811461121a57600080fd5b50565b60008135905061122c81611206565b92915050565b60006020828403121561124857611247611163565b5b60006112568482850161121d565b91505092915050565b6112688161116d565b82525050565b600081519050919050565b600082825260208201905092915050565b60005b838110156112a857808201518184015260208101905061128d565b838111156112b7576000848401525b50505050565b6000601f19601f8301169050919050565b60006112d98261126e565b6112e38185611279565b93506112f381856020860161128a565b6112fc816112bd565b840191505092915050565b6000819050919050565b61131a81611307565b82525050565b7f4e487b7100000000000000000000000000000000000000000000000000000000600052602160045260246000fd5b600481106113605761135f611320565b5b50565b60008190506113718261134f565b919050565b600061138182611363565b9050919050565b61139181611376565b82525050565b60008160000b9050919050565b6113ad81611397565b82525050565b600060e0820190506113c8600083018a61125f565b81810360208301526113da81896112ce565b905081810360408301526113ee81886112ce565b9050818103606083015261140281876112ce565b90506114116080830186611311565b61141e60a0830185611388565b61142b60c08301846113a4565b98975050505050505050565b600073ffffffffffffffffffffffffffffffffffffffff82169050919050565b600061146282611437565b9050919050565b61147281611457565b82525050565b600060208201905061148d6000830184611469565b92915050565b600481106114a057600080fd5b50565b6000813590506114b281611493565b92915050565b6114c181611397565b81146114cc57600080fd5b50565b6000813590506114de816114b8565b92915050565b6000806000606084860312156114fd576114fc611163565b5b600061150b8682870161118e565b935050602061151c868287016114a3565b925050604061152d868287016114cf565b9150509250925092565b600081519050919050565b600082825260208201905092915050565b6000819050602082019050919050565b61156c8161116d565b82525050565b600061157e8383611563565b60208301905092915050565b6000602082019050919050565b60006115a282611537565b6115ac8185611542565b93506115b783611553565b8060005b838110156115e85781516115cf8882611572565b97506115da8361158a565b9250506001810190506115bb565b5085935050505092915050565b6000602082019050818103600083015261160f8184611597565b905092915050565b600080fd5b600080fd5b7f4e487b7100000000000000000000000000000000000000000000000000000000600052604160045260246000fd5b611659826112bd565b810181811067ffffffffffffffff8211171561167857611677611621565b5b80604052505050565b600061168b611159565b90506116978282611650565b919050565b600067ffffffffffffffff8211156116b7576116b6611621565b5b6116c0826112bd565b9050602081019050919050565b82818337600083830152505050565b60006116ef6116ea8461169c565b611681565b90508281526020810184848401111561170b5761170a61161c565b5b6117168482856116cd565b509392505050565b600082601f83011261173357611732611617565b5b81356117438482602086016116dc565b91505092915050565b61175581611307565b811461176057600080fd5b50565b6000813590506117728161174c565b92915050565b6000806000806080858703121561179257611791611163565b5b600085013567ffffffffffffffff8111156117b0576117af611168565b5b6117bc8782880161171e565b945050602085013567ffffffffffffffff8111156117dd576117dc611168565b5b6117e98782880161171e565b935050604085013567ffffffffffffffff81111561180a57611809611168565b5b6118168782880161171e565b925050606061182787828801611763565b91505092959194509250565b6000602082019050611848600083018461125f565b92915050565b61185781611457565b811461186257600080fd5b50565b6000813590506118748161184e565b92915050565b6000602082840312156118905761188f611163565b5b600061189e84828501611865565b91505092915050565b7f4e487b7100000000000000000000000000000000000000000000000000000000600052603260045260246000fd5b7f4f776e61626c653a2063616c6c6572206973206e6f7420746865206f776e6572600082015250565b600061190c602083611279565b9150611917826118d6565b602082019050919050565b6000602082019050818103600083015261193b816118ff565b9050919050565b7f4e487b7100000000000000000000000000000000000000000000000000000000600052602260045260246000fd5b6000600282049050600182168061198957607f821691505b60208210810361199c5761199b611942565b5b50919050565b7f4e487b7100000000000000000000000000000000000000000000000000000000600052601160045260246000fd5b60006119dc82611307565b91506119e783611307565b9250828210156119fa576119f96119a2565b5b828203905092915050565b6000611a1082611307565b9150611a1b83611307565b9250827fffffffffffffffffffffffffffffffffffffffffffffffffffffffffffffffff03821115611a5057611a4f6119a2565b5b828201905092915050565b7f5265656e7472616e637947756172643a207265656e7472616e742063616c6c00600082015250565b6000611a91601f83611279565b9150611a9c82611a5b565b602082019050919050565b60006020820190508181036000830152611ac081611a84565b9050919050565b7f4d617463682074696d6520697320696e636f7272656374000000000000000000600082015250565b6000611afd601783611279565b9150611b0882611ac7565b602082019050919050565b60006020820190508181036000830152611b2c81611af0565b9050919050565b7f5f6e616d652063616e6e6f7420626520656d7074790000000000000000000000600082015250565b6000611b69601583611279565b9150611b7482611b33565b602082019050919050565b60006020820190508181036000830152611b9881611b5c565b9050919050565b600081905092915050565b6000611bb58261126e565b611bbf8185611b9f565b9350611bcf81856020860161128a565b80840191505092915050565b6000819050919050565b611bf6611bf182611307565b611bdb565b82525050565b6000611c088287611baa565b9150611c148286611baa565b9150611c208285611baa565b9150611c2c8284611be5565b60208201915081905095945050505050565b7f4576656e7420616c726561647920657869737473000000000000000000000000600082015250565b6000611c74601483611279565b9150611c7f82611c3e565b602082019050919050565b60006020820190508181036000830152611ca381611c67565b9050919050565b6000819050919050565b6000819050919050565b6000611cd9611cd4611ccf84611caa565b611cb4565b611397565b9050919050565b611ce981611cbe565b82525050565b600060e082019050611d04600083018a61125f565b8181036020830152611d1681896112ce565b90508181036040830152611d2a81886112ce565b90508181036060830152611d3e81876112ce565b9050611d4d6080830186611311565b611d5a60a0830185611388565b611d6760c0830184611ce0565b98975050505050505050565b7f4f776e61626c653a206e6577206f776e657220697320746865207a65726f206160008201527f6464726573730000000000000000000000000000000000000000000000000000602082015250565b6000611dcf602683611279565b9150611dda82611d73565b604082019050919050565b60006020820190508181036000830152611dfe81611dc2565b905091905056fea26469706673582212204e4ad102830f58f125ce981cb3a60b14676c6730e304ae222655c6409e5660a764736f6c634300080d0033",
  "immutableReferences": {},
  "source": "// SPDX-License-Identifier: MIT\npragma solidity ^0.8.4;\n\nimport \"@openzeppelin/contracts/access/Ownable.sol\";\nimport \"@openzeppelin/contracts/security/ReentrancyGuard.sol\";\n\nimport \"./OracleInterface.sol\";\n\n/**\n * @title An smart-contract Oracle that register sport events, retrieve their outcomes and communicate their results when asked for.\n * @notice Collects and provides information on sport events and their outcomes\n */\ncontract BetOracle is OracleInterface, Ownable, ReentrancyGuard {\n    /**\n     * @dev all the sport events\n     */\n    SportEvent[] events;\n\n    /*\n     * @dev map of composed {eventId (SHA3 of event key infos) => eventIndex (in events)} pairs\n     */\n    mapping(bytes32 => uint256) eventIdToIndex;\n\n    /***\n     * @dev defines a sport event along with its outcome\n     */\n    struct SportEvent {\n        bytes32 id;\n        string name;\n        string teamAname;\n        string teamBname;\n        uint256 date;\n        EventOutcome outcome;\n        int8 winner;\n    }\n\n    // FYI: enum EventOutcome is defind in OracleInterface\n\n    /**\n     * @dev Triggered once an event has been added\n     */\n    event SportEventAdded(\n        bytes32 _eventId,\n        string name,\n        string _teamAname,\n        string _teamBname,\n        uint256 _date,\n        EventOutcome _eventOutcome,\n        int8 _winner\n    );\n\n    /**\n     * @notice Add a new pending sport event into the blockchain\n     * @param _name descriptive name for the sport event (e.g. Pac vs. Mayweather 2016)\n     * @param _teamAname name of teamA\n     * @param _teamBname name of teamB\n     * @param _date date set for the sport event\n     * @return the unique id of the newly created sport event\n     */\n    function addSportEvent(\n        string memory _name,\n        string memory _teamAname,\n        string memory _teamBname,\n        uint256 _date\n    ) public onlyOwner nonReentrant returns (bytes32) {\n        uint256 blockNum = block.number;\n        require(blockNum < _date, \"Match time is incorrect\");\n        bytes memory bytesName = bytes(_name);\n        require(bytesName.length > 0, \"_name cannot be empty\");\n        // require(\n        //     _date >= block.timestamp + 1 weeks,\n        //     \"_date must be >= 1 week from now\"\n        // );\n\n        // Hash key fields of the sport event to get a unique id\n        bytes32 eventId = keccak256(\n            abi.encodePacked(_name, _teamAname, _teamBname, _date)\n        );\n\n        // Make sure that the sport event is unique and does not exist yet\n        require(!eventExists(eventId), \"Event already exists\");\n\n        // Add the sport event\n        events.push(\n            SportEvent(\n                eventId,\n                _name,\n                _teamAname,\n                _teamBname,\n                _date,\n                EventOutcome.Pending,\n                -1\n            )\n        );\n        uint256 newIndex = events.length - 1;\n        eventIdToIndex[eventId] = newIndex + 1;\n\n        emit SportEventAdded(\n            eventId,\n            _name,\n            _teamAname,\n            _teamBname,\n            _date,\n            EventOutcome.Pending,\n            -1 // no winner yet\n        );\n\n        // Return the unique id of the new sport event\n        return eventId;\n    }\n\n    /**\n     * @notice Returns the array index of the sport event with the given id\n     * @dev if the event id is invalid, then the return value will be incorrect and may cause error; you must call eventExists(_eventId) first!\n     * @param _eventId the sport event id to get\n     * @return the array index of this event if it exists or else -1\n     */\n    function _getMatchIndex(bytes32 _eventId) private view returns (uint256) {\n        return eventIdToIndex[_eventId] - 1;\n    }\n\n    /**\n     * @notice Determines whether a sport event exists with the given id\n     * @param _eventId the id of a sport event id\n     * @return true if sport event exists and its id is valid\n     */\n    function eventExists(bytes32 _eventId) public view override returns (bool) {\n        if (events.length == 0) {\n            return false;\n        }\n        uint256 index = eventIdToIndex[_eventId];\n        return (index > 0);\n    }\n\n    /**\n     * @notice Sets the outcome of a predefined match, permanently on the blockchain\n     * @param _eventId unique id of the match to modify\n     * @param _outcome outcome of the match\n     * @param _winner 0-based id of the winnner\n     */\n    function declareOutcome(\n        bytes32 _eventId,\n        EventOutcome _outcome,\n        int8 _winner\n    ) external onlyOwner {\n        // Require that it exists\n        require(eventExists(_eventId));\n\n        // Get the event\n        uint256 index = _getMatchIndex(_eventId);\n        SportEvent storage theMatch = events[index];\n\n        if (_outcome == EventOutcome.Decided) require(_winner >= 0);\n\n        // Set the outcome\n        theMatch.outcome = _outcome;\n\n        // Set the winner (if there is one)\n        if (_outcome == EventOutcome.Decided) theMatch.winner = _winner;\n    }\n\n    /**\n     * @notice gets the unique ids of all pending events, in reverse chronological order\n     * @return an array of unique pending events ids\n     */\n    function getPendingEvents()\n        public\n        view\n        override\n        returns (bytes32[] memory)\n    {\n        uint256 count = 0;\n\n        // Get the count of pending events\n        for (uint256 i = 0; i < events.length; i = i + 1) {\n            if (events[i].outcome == EventOutcome.Pending) count = count + 1;\n        }\n\n        // Collect up all the pending events\n        bytes32[] memory output = new bytes32[](count);\n\n        if (count > 0) {\n            uint256 index = 0;\n            for (uint256 n = events.length; n > 0; n = n - 1) {\n                if (events[n - 1].outcome == EventOutcome.Pending) {\n                    output[index] = events[n - 1].id;\n                    index = index + 1;\n                }\n            }\n        }\n\n        return output;\n    }\n\n    /**\n     * @notice gets the unique ids of events, pending and decided, in reverse chronological order\n     * @return an array of unique match ids\n     */\n    function getAllSportEvents()\n        public\n        view\n        override\n        returns (bytes32[] memory)\n    {\n        bytes32[] memory eventIds = new bytes32[](events.length);\n\n        // Collect all event ids\n        if (events.length > 0) {\n            uint256 index = 0;\n            for (uint256 n = events.length; n > 0; n = n - 1) {\n                eventIds[index = index + 1] = events[n - 1].id;\n            }\n        }\n\n        return eventIds;\n    }\n\n    /**\n     * @notice gets the specified sport event and return its data\n     * @param _eventId the unique id of the desired event\n     * @return id   the id of the event\n     * @return name the name of the event\n     * @return teamAname\n     * @return teamBname\n     * @return date when the event takes place\n     * @return outcome an integer that represents the event outcome\n     * @return winner the index of the winner\n     */\n    function getEvent(bytes32 _eventId)\n        public\n        view\n        override\n        returns (\n            bytes32 id,\n            string memory name,\n            string memory teamAname,\n            string memory teamBname,\n            uint256 date,\n            EventOutcome outcome,\n            int8 winner\n        )\n    {\n        // Get the sport event\n        if (eventExists(_eventId)) {\n            SportEvent storage theMatch = events[_getMatchIndex(_eventId)];\n            return (\n                theMatch.id,\n                theMatch.name,\n                theMatch.teamAname,\n                theMatch.teamBname,\n                theMatch.date,\n                theMatch.outcome,\n                theMatch.winner\n            );\n        } else {\n            return (_eventId, \"\", \"\", \"\", 0, EventOutcome.Pending, -1);\n        }\n    }\n\n    /**\n     * @notice return the data of the most recent sport event\n     * @param _pending if true, returns only the most recent pending sport event;\n     *   otherwise, returns the most recent sport event either pending or completed\n     * @return id   the id of the event\n     * @return name the name of the event\n     * @return teamAname\n     * @return teamBname\n     * @return date when the event takes place\n     * @return outcome an integer that represents the event outcome\n     * @return winner the index of the winner\n     */\n    function getLatestEvent(bool _pending)\n        public\n        view\n        override\n        returns (\n            bytes32 id,\n            string memory name,\n            string memory teamAname,\n            string memory teamBname,\n            uint256 date,\n            EventOutcome outcome,\n            int8 winner\n        )\n    {\n        bytes32 eventId = 0;\n        bytes32[] memory ids;\n\n        if (_pending) {\n            ids = getPendingEvents();\n        } else {\n            ids = getAllSportEvents();\n        }\n        if (ids.length > 0) {\n            eventId = ids[0];\n        }\n\n        // Return a null sport event by default\n        return getEvent(eventId);\n    }\n\n    /**\n     * @notice gets the address of this contract\n     * @return the address of the BetOracle smart-contract\n     */\n    function getAddress() public view returns (address) {\n        return address(this);\n    }\n\n    /**\n     * @notice can be used by a client contract to ensure that they've connected to this contract interface successfully\n     * @return true, unconditionally\n     */\n    function testConnection() public pure override returns (bool) {\n        return true;\n    }\n}\n",
  "sourcePath": "/home/siddharth/new/crypto-bet/contracts/BetOracle.sol",
  "compiler": {
    "name": "solc",
    "version": "0.8.13+commit.abaa5c0e.Emscripten.clang"
  },
  "schemaVersion": "3.4.4",
  "updatedAt": "2022-04-27T11:16:08.086Z",
  "networkType": "ethereum",
  "devdoc": {
    "events": {
      "SportEventAdded(bytes32,string,string,string,uint256,uint8,int8)": {
        "details": "Triggered once an event has been added"
      }
    },
    "kind": "dev",
    "methods": {
      "addSportEvent(string,string,string,uint256)": {
        "params": {
          "_date": "date set for the sport event",
          "_name": "descriptive name for the sport event (e.g. Pac vs. Mayweather 2016)",
          "_teamAname": "name of teamA",
          "_teamBname": "name of teamB"
        },
        "returns": {
          "_0": "the unique id of the newly created sport event"
        }
      },
      "declareOutcome(bytes32,uint8,int8)": {
        "params": {
          "_eventId": "unique id of the match to modify",
          "_outcome": "outcome of the match",
          "_winner": "0-based id of the winnner"
        }
      },
      "eventExists(bytes32)": {
        "params": {
          "_eventId": "the id of a sport event id"
        },
        "returns": {
          "_0": "true if sport event exists and its id is valid"
        }
      },
      "getAddress()": {
        "returns": {
          "_0": "the address of the BetOracle smart-contract"
        }
      },
      "getAllSportEvents()": {
        "returns": {
          "_0": "an array of unique match ids"
        }
      },
      "getEvent(bytes32)": {
        "params": {
          "_eventId": "the unique id of the desired event"
        },
        "returns": {
          "date": "when the event takes place",
          "id": "  the id of the event",
          "name": "the name of the event",
          "outcome": "an integer that represents the event outcome",
          "teamAname": "teamAname",
          "teamBname": "teamBname",
          "winner": "the index of the winner"
        }
      },
      "getLatestEvent(bool)": {
        "params": {
          "_pending": "if true, returns only the most recent pending sport event;   otherwise, returns the most recent sport event either pending or completed"
        },
        "returns": {
          "date": "when the event takes place",
          "id": "  the id of the event",
          "name": "the name of the event",
          "outcome": "an integer that represents the event outcome",
          "teamAname": "teamAname",
          "teamBname": "teamBname",
          "winner": "the index of the winner"
        }
      },
      "getPendingEvents()": {
        "returns": {
          "_0": "an array of unique pending events ids"
        }
      },
      "owner()": {
        "details": "Returns the address of the current owner."
      },
      "renounceOwnership()": {
        "details": "Leaves the contract without owner. It will not be possible to call `onlyOwner` functions anymore. Can only be called by the current owner. NOTE: Renouncing ownership will leave the contract without an owner, thereby removing any functionality that is only available to the owner."
      },
      "testConnection()": {
        "returns": {
          "_0": "true, unconditionally"
        }
      },
      "transferOwnership(address)": {
        "details": "Transfers ownership of the contract to a new account (`newOwner`). Can only be called by the current owner."
      }
    },
    "stateVariables": {
      "events": {
        "details": "all the sport events"
      }
    },
    "title": "An smart-contract Oracle that register sport events, retrieve their outcomes and communicate their results when asked for.",
    "version": 1
  },
  "userdoc": {
    "kind": "user",
    "methods": {
      "addSportEvent(string,string,string,uint256)": {
        "notice": "Add a new pending sport event into the blockchain"
      },
      "declareOutcome(bytes32,uint8,int8)": {
        "notice": "Sets the outcome of a predefined match, permanently on the blockchain"
      },
      "eventExists(bytes32)": {
        "notice": "Determines whether a sport event exists with the given id"
      },
      "getAddress()": {
        "notice": "gets the address of this contract"
      },
      "getAllSportEvents()": {
        "notice": "gets the unique ids of events, pending and decided, in reverse chronological order"
      },
      "getEvent(bytes32)": {
        "notice": "gets the specified sport event and return its data"
      },
      "getLatestEvent(bool)": {
        "notice": "return the data of the most recent sport event"
      },
      "getPendingEvents()": {
        "notice": "gets the unique ids of all pending events, in reverse chronological order"
      },
      "testConnection()": {
        "notice": "can be used by a client contract to ensure that they've connected to this contract interface successfully"
      }
    },
    "notice": "Collects and provides information on sport events and their outcomes",
    "version": 1
  }
}