{
  "contractName": "BetOracle",
  "abi": [
    {
      "anonymous": false,
      "inputs": [
        {
          "indexed": true,
          "internalType": "address",
          "name": "previousOwner",
          "type": "address"
        },
        {
          "indexed": true,
          "internalType": "address",
          "name": "newOwner",
          "type": "address"
        }
      ],
      "name": "OwnershipTransferred",
      "type": "event"
    },
    {
      "anonymous": false,
      "inputs": [
        {
          "indexed": false,
          "internalType": "bytes32",
          "name": "_eventId",
          "type": "bytes32"
        },
        {
          "indexed": false,
          "internalType": "string",
          "name": "name",
          "type": "string"
        },
        {
          "indexed": false,
          "internalType": "string",
          "name": "_teamAname",
          "type": "string"
        },
        {
          "indexed": false,
          "internalType": "string",
          "name": "_teamBname",
          "type": "string"
        },
        {
          "indexed": false,
          "internalType": "uint256",
          "name": "_date",
          "type": "uint256"
        },
        {
          "indexed": false,
          "internalType": "enum OracleInterface.EventOutcome",
          "name": "_eventOutcome",
          "type": "uint8"
        },
        {
          "indexed": false,
          "internalType": "int8",
          "name": "_winner",
          "type": "int8"
        }
      ],
      "name": "SportEventAdded",
      "type": "event"
    },
    {
      "inputs": [],
      "name": "owner",
      "outputs": [
        {
          "internalType": "address",
          "name": "",
          "type": "address"
        }
      ],
      "stateMutability": "view",
      "type": "function",
      "constant": true
    },
    {
      "inputs": [],
      "name": "renounceOwnership",
      "outputs": [],
      "stateMutability": "nonpayable",
      "type": "function"
    },
    {
      "inputs": [
        {
          "internalType": "address",
          "name": "newOwner",
          "type": "address"
        }
      ],
      "name": "transferOwnership",
      "outputs": [],
      "stateMutability": "nonpayable",
      "type": "function"
    },
    {
      "inputs": [
        {
          "internalType": "string",
          "name": "_name",
          "type": "string"
        },
        {
          "internalType": "string",
          "name": "_teamAname",
          "type": "string"
        },
        {
          "internalType": "string",
          "name": "_teamBname",
          "type": "string"
        },
        {
          "internalType": "uint256",
          "name": "_date",
          "type": "uint256"
        }
      ],
      "name": "addSportEvent",
      "outputs": [
        {
          "internalType": "bytes32",
          "name": "",
          "type": "bytes32"
        }
      ],
      "stateMutability": "nonpayable",
      "type": "function"
    },
    {
      "inputs": [
        {
          "internalType": "bytes32",
          "name": "_eventId",
          "type": "bytes32"
        }
      ],
      "name": "eventExists",
      "outputs": [
        {
          "internalType": "bool",
          "name": "",
          "type": "bool"
        }
      ],
      "stateMutability": "view",
      "type": "function",
      "constant": true
    },
    {
      "inputs": [
        {
          "internalType": "bytes32",
          "name": "_eventId",
          "type": "bytes32"
        },
        {
          "internalType": "enum OracleInterface.EventOutcome",
          "name": "_outcome",
          "type": "uint8"
        },
        {
          "internalType": "int8",
          "name": "_winner",
          "type": "int8"
        }
      ],
      "name": "declareOutcome",
      "outputs": [],
      "stateMutability": "nonpayable",
      "type": "function"
    },
    {
      "inputs": [],
      "name": "getPendingEvents",
      "outputs": [
        {
          "internalType": "bytes32[]",
          "name": "",
          "type": "bytes32[]"
        }
      ],
      "stateMutability": "view",
      "type": "function",
      "constant": true
    },
    {
      "inputs": [],
      "name": "getAllSportEvents",
      "outputs": [
        {
          "internalType": "bytes32[]",
          "name": "",
          "type": "bytes32[]"
        }
      ],
      "stateMutability": "view",
      "type": "function",
      "constant": true
    },
    {
      "inputs": [
        {
          "internalType": "bytes32",
          "name": "_eventId",
          "type": "bytes32"
        }
      ],
      "name": "getEvent",
      "outputs": [
        {
          "internalType": "bytes32",
          "name": "id",
          "type": "bytes32"
        },
        {
          "internalType": "string",
          "name": "name",
          "type": "string"
        },
        {
          "internalType": "string",
          "name": "teamAname",
          "type": "string"
        },
        {
          "internalType": "string",
          "name": "teamBname",
          "type": "string"
        },
        {
          "internalType": "uint256",
          "name": "date",
          "type": "uint256"
        },
        {
          "internalType": "enum OracleInterface.EventOutcome",
          "name": "outcome",
          "type": "uint8"
        },
        {
          "internalType": "int8",
          "name": "winner",
          "type": "int8"
        }
      ],
      "stateMutability": "view",
      "type": "function",
      "constant": true
    },
    {
      "inputs": [
        {
          "internalType": "bool",
          "name": "_pending",
          "type": "bool"
        }
      ],
      "name": "getLatestEvent",
      "outputs": [
        {
          "internalType": "bytes32",
          "name": "id",
          "type": "bytes32"
        },
        {
          "internalType": "string",
          "name": "name",
          "type": "string"
        },
        {
          "internalType": "string",
          "name": "teamAname",
          "type": "string"
        },
        {
          "internalType": "string",
          "name": "teamBname",
          "type": "string"
        },
        {
          "internalType": "uint256",
          "name": "date",
          "type": "uint256"
        },
        {
          "internalType": "enum OracleInterface.EventOutcome",
          "name": "outcome",
          "type": "uint8"
        },
        {
          "internalType": "int8",
          "name": "winner",
          "type": "int8"
        }
      ],
      "stateMutability": "view",
      "type": "function",
      "constant": true
    },
    {
      "inputs": [],
      "name": "getAddress",
      "outputs": [
        {
          "internalType": "address",
          "name": "",
          "type": "address"
        }
      ],
      "stateMutability": "view",
      "type": "function",
      "constant": true
    },
    {
      "inputs": [],
      "name": "testConnection",
      "outputs": [
        {
          "internalType": "bool",
          "name": "",
          "type": "bool"
        }
      ],
      "stateMutability": "pure",
      "type": "function",
      "constant": true
    }
  ],
  "bytecode": "0x608060405234801561001057600080fd5b5061002d61002261003960201b60201c565b61004160201b60201c565b60018081905550610105565b600033905090565b60008060009054906101000a900473ffffffffffffffffffffffffffffffffffffffff169050816000806101000a81548173ffffffffffffffffffffffffffffffffffffffff021916908373ffffffffffffffffffffffffffffffffffffffff1602179055508173ffffffffffffffffffffffffffffffffffffffff168173ffffffffffffffffffffffffffffffffffffffff167f8be0079c531659141344cd1fd0a4f28419497f9722a3daafe3b4186f6b6457e060405160405180910390a35050565b611d87806101146000396000f3fe608060405234801561001057600080fd5b50600436106100b45760003560e01c80638c172fa2116100715780638c172fa2146101815780638da5cb5b146101b7578063a717e89a146101d5578063ad6d1565146101f3578063b4184e7014610223578063f2fde38b14610241576100b4565b8063118e58bd146100b957806329e54269146100e95780633412a15c1461011f57806338cc48311461013d578063715018a61461015b5780637898d33414610165575b600080fd5b6100d360048036038101906100ce919061115b565b61025d565b6040516100e091906111a3565b60405180910390f35b61010360048036038101906100fe91906111ea565b610299565b604051610116979695949392919061136b565b60405180910390f35b61012761031b565b60405161013491906111a3565b60405180910390f35b610145610324565b6040516101529190611430565b60405180910390f35b61016361032c565b005b61017f600480360381019061017a919061149c565b6103b4565b005b61019b6004803603810190610196919061115b565b610531565b6040516101ae979695949392919061136b565b60405180910390f35b6101bf6107e3565b6040516101cc9190611430565b60405180910390f35b6101dd61080c565b6040516101ea91906115ad565b60405180910390f35b61020d60048036038101906102089190611730565b610901565b60405161021a91906117eb565b60405180910390f35b61022b610c97565b60405161023891906115ad565b60405180910390f35b61025b60048036038101906102569190611832565b610e82565b005b600080600280549050036102745760009050610294565b600060036000848152602001908152602001600020549050600081119150505b919050565b600060608060606000806000806000801b9050606089156102c3576102bc610c97565b90506102ce565b6102cb61080c565b90505b6000815111156102f757806000815181106102ec576102eb61185f565b5b602002602001015191505b61030082610531565b98509850985098509850985098505050919395979092949650565b60006001905090565b600030905090565b610334610f79565b73ffffffffffffffffffffffffffffffffffffffff166103526107e3565b73ffffffffffffffffffffffffffffffffffffffff16146103a8576040517f08c379a000000000000000000000000000000000000000000000000000000000815260040161039f906118da565b60405180910390fd5b6103b26000610f81565b565b6103bc610f79565b73ffffffffffffffffffffffffffffffffffffffff166103da6107e3565b73ffffffffffffffffffffffffffffffffffffffff1614610430576040517f08c379a0000000000000000000000000000000000000000000000000000000008152600401610427906118da565b60405180910390fd5b6104398361025d565b61044257600080fd5b600061044d84611045565b90506000600282815481106104655761046461185f565b5b90600052602060002090600602019050600380811115610488576104876112d8565b5b84600381111561049b5761049a6112d8565b5b036104b25760008360000b12156104b157600080fd5b5b838160050160006101000a81548160ff021916908360038111156104d9576104d86112d8565b5b02179055506003808111156104f1576104f06112d8565b5b846003811115610504576105036112d8565b5b0361052a57828160050160016101000a81548160ff021916908360000b60ff1602179055505b5050505050565b6000606080606060008060006105468861025d565b1561076b57600060026105588a611045565b815481106105695761056861185f565b5b90600052602060002090600602019050806000015481600101826002018360030184600401548560050160009054906101000a900460ff168660050160019054906101000a900460000b8580546105bf90611929565b80601f01602080910402602001604051908101604052809291908181526020018280546105eb90611929565b80156106385780601f1061060d57610100808354040283529160200191610638565b820191906000526020600020905b81548152906001019060200180831161061b57829003601f168201915b5050505050955084805461064b90611929565b80601f016020809104026020016040519081016040528092919081815260200182805461067790611929565b80156106c45780601f10610699576101008083540402835291602001916106c4565b820191906000526020600020905b8154815290600101906020018083116106a757829003601f168201915b505050505094508380546106d790611929565b80601f016020809104026020016040519081016040528092919081815260200182805461070390611929565b80156107505780601f1061072557610100808354040283529160200191610750565b820191906000526020600020905b81548152906001019060200180831161073357829003601f168201915b505050505093509750975097509750975097509750506107d8565b876000807fffffffffffffffffffffffffffffffffffffffffffffffffffffffffffffffff60405180602001604052806000815250929190604051806020016040528060008152509291906040518060200160405280600081525092919096509650965096509650965096505b919395979092949650565b60008060009054906101000a900473ffffffffffffffffffffffffffffffffffffffff16905090565b6060600060028054905067ffffffffffffffff81111561082f5761082e6115d9565b5b60405190808252806020026020018201604052801561085d5781602001602082028036833780820191505090505b509050600060028054905011156108fa5760008060028054905090505b60008111156108f75760026001826108929190611989565b815481106108a3576108a261185f565b5b906000526020600020906006020160000154836001846108c391906119bd565b935083815181106108d7576108d661185f565b5b6020026020010181815250506001816108f09190611989565b905061087a565b50505b8091505090565b600061090b610f79565b73ffffffffffffffffffffffffffffffffffffffff166109296107e3565b73ffffffffffffffffffffffffffffffffffffffff161461097f576040517f08c379a0000000000000000000000000000000000000000000000000000000008152600401610976906118da565b60405180910390fd5b6002600154036109c4576040517f08c379a00000000000000000000000000000000000000000000000000000000081526004016109bb90611a5f565b60405180910390fd5b600260018190555060008590506000815111610a15576040517f08c379a0000000000000000000000000000000000000000000000000000000008152600401610a0c90611acb565b60405180910390fd5b600086868686604051602001610a2e9493929190611b48565b604051602081830303815290604052805190602001209050610a4f8161025d565b15610a8f576040517f08c379a0000000000000000000000000000000000000000000000000000000008152600401610a8690611bd6565b60405180910390fd5b60026040518060e0016040528083815260200189815260200188815260200187815260200186815260200160006003811115610ace57610acd6112d8565b5b81526020017fffffffffffffffffffffffffffffffffffffffffffffffffffffffffffffffff60000b8152509080600181540180825580915050600190039060005260206000209060060201600090919091909150600082015181600001556020820151816001019080519060200190610b4992919061106e565b506040820151816002019080519060200190610b6692919061106e565b506060820151816003019080519060200190610b8392919061106e565b506080820151816004015560a08201518160050160006101000a81548160ff02191690836003811115610bb957610bb86112d8565b5b021790555060c08201518160050160016101000a81548160ff021916908360000b60ff160217905550505060006001600280549050610bf89190611989565b9050600181610c0791906119bd565b60036000848152602001908152602001600020819055507f50f12ab9c642eb043b9fa2c460eeb969b3950c1a5c92975b8a5564514ed6d44a828989898960007fffffffffffffffffffffffffffffffffffffffffffffffffffffffffffffffff604051610c7a9796959493929190611c3b565b60405180910390a181935050505060018081905550949350505050565b60606000805b600280549050811015610d2c5760006003811115610cbe57610cbd6112d8565b5b60028281548110610cd257610cd161185f565b5b906000526020600020906006020160050160009054906101000a900460ff166003811115610d0357610d026112d8565b5b03610d1857600182610d1591906119bd565b91505b600181610d2591906119bd565b9050610c9d565b5060008167ffffffffffffffff811115610d4957610d486115d9565b5b604051908082528060200260200182016040528015610d775781602001602082028036833780820191505090505b5090506000821115610e7a5760008060028054905090505b6000811115610e775760006003811115610dac57610dab6112d8565b5b6002600183610dbb9190611989565b81548110610dcc57610dcb61185f565b5b906000526020600020906006020160050160009054906101000a900460ff166003811115610dfd57610dfc6112d8565b5b03610e63576002600182610e119190611989565b81548110610e2257610e2161185f565b5b906000526020600020906006020160000154838381518110610e4757610e4661185f565b5b602002602001018181525050600182610e6091906119bd565b91505b600181610e709190611989565b9050610d8f565b50505b809250505090565b610e8a610f79565b73ffffffffffffffffffffffffffffffffffffffff16610ea86107e3565b73ffffffffffffffffffffffffffffffffffffffff1614610efe576040517f08c379a0000000000000000000000000000000000000000000000000000000008152600401610ef5906118da565b60405180910390fd5b600073ffffffffffffffffffffffffffffffffffffffff168173ffffffffffffffffffffffffffffffffffffffff1603610f6d576040517f08c379a0000000000000000000000000000000000000000000000000000000008152600401610f6490611d31565b60405180910390fd5b610f7681610f81565b50565b600033905090565b60008060009054906101000a900473ffffffffffffffffffffffffffffffffffffffff169050816000806101000a81548173ffffffffffffffffffffffffffffffffffffffff021916908373ffffffffffffffffffffffffffffffffffffffff1602179055508173ffffffffffffffffffffffffffffffffffffffff168173ffffffffffffffffffffffffffffffffffffffff167f8be0079c531659141344cd1fd0a4f28419497f9722a3daafe3b4186f6b6457e060405160405180910390a35050565b6000600160036000848152602001908152602001600020546110679190611989565b9050919050565b82805461107a90611929565b90600052602060002090601f01602090048101928261109c57600085556110e3565b82601f106110b557805160ff19168380011785556110e3565b828001600101855582156110e3579182015b828111156110e25782518255916020019190600101906110c7565b5b5090506110f091906110f4565b5090565b5b8082111561110d5760008160009055506001016110f5565b5090565b6000604051905090565b600080fd5b600080fd5b6000819050919050565b61113881611125565b811461114357600080fd5b50565b6000813590506111558161112f565b92915050565b6000602082840312156111715761117061111b565b5b600061117f84828501611146565b91505092915050565b60008115159050919050565b61119d81611188565b82525050565b60006020820190506111b86000830184611194565b92915050565b6111c781611188565b81146111d257600080fd5b50565b6000813590506111e4816111be565b92915050565b600060208284031215611200576111ff61111b565b5b600061120e848285016111d5565b91505092915050565b61122081611125565b82525050565b600081519050919050565b600082825260208201905092915050565b60005b83811015611260578082015181840152602081019050611245565b8381111561126f576000848401525b50505050565b6000601f19601f8301169050919050565b600061129182611226565b61129b8185611231565b93506112ab818560208601611242565b6112b481611275565b840191505092915050565b6000819050919050565b6112d2816112bf565b82525050565b7f4e487b7100000000000000000000000000000000000000000000000000000000600052602160045260246000fd5b60048110611318576113176112d8565b5b50565b600081905061132982611307565b919050565b60006113398261131b565b9050919050565b6113498161132e565b82525050565b60008160000b9050919050565b6113658161134f565b82525050565b600060e082019050611380600083018a611217565b81810360208301526113928189611286565b905081810360408301526113a68188611286565b905081810360608301526113ba8187611286565b90506113c960808301866112c9565b6113d660a0830185611340565b6113e360c083018461135c565b98975050505050505050565b600073ffffffffffffffffffffffffffffffffffffffff82169050919050565b600061141a826113ef565b9050919050565b61142a8161140f565b82525050565b60006020820190506114456000830184611421565b92915050565b6004811061145857600080fd5b50565b60008135905061146a8161144b565b92915050565b6114798161134f565b811461148457600080fd5b50565b60008135905061149681611470565b92915050565b6000806000606084860312156114b5576114b461111b565b5b60006114c386828701611146565b93505060206114d48682870161145b565b92505060406114e586828701611487565b9150509250925092565b600081519050919050565b600082825260208201905092915050565b6000819050602082019050919050565b61152481611125565b82525050565b6000611536838361151b565b60208301905092915050565b6000602082019050919050565b600061155a826114ef565b61156481856114fa565b935061156f8361150b565b8060005b838110156115a0578151611587888261152a565b975061159283611542565b925050600181019050611573565b5085935050505092915050565b600060208201905081810360008301526115c7818461154f565b905092915050565b600080fd5b600080fd5b7f4e487b7100000000000000000000000000000000000000000000000000000000600052604160045260246000fd5b61161182611275565b810181811067ffffffffffffffff821117156116305761162f6115d9565b5b80604052505050565b6000611643611111565b905061164f8282611608565b919050565b600067ffffffffffffffff82111561166f5761166e6115d9565b5b61167882611275565b9050602081019050919050565b82818337600083830152505050565b60006116a76116a284611654565b611639565b9050828152602081018484840111156116c3576116c26115d4565b5b6116ce848285611685565b509392505050565b600082601f8301126116eb576116ea6115cf565b5b81356116fb848260208601611694565b91505092915050565b61170d816112bf565b811461171857600080fd5b50565b60008135905061172a81611704565b92915050565b6000806000806080858703121561174a5761174961111b565b5b600085013567ffffffffffffffff81111561176857611767611120565b5b611774878288016116d6565b945050602085013567ffffffffffffffff81111561179557611794611120565b5b6117a1878288016116d6565b935050604085013567ffffffffffffffff8111156117c2576117c1611120565b5b6117ce878288016116d6565b92505060606117df8782880161171b565b91505092959194509250565b60006020820190506118006000830184611217565b92915050565b61180f8161140f565b811461181a57600080fd5b50565b60008135905061182c81611806565b92915050565b6000602082840312156118485761184761111b565b5b60006118568482850161181d565b91505092915050565b7f4e487b7100000000000000000000000000000000000000000000000000000000600052603260045260246000fd5b7f4f776e61626c653a2063616c6c6572206973206e6f7420746865206f776e6572600082015250565b60006118c4602083611231565b91506118cf8261188e565b602082019050919050565b600060208201905081810360008301526118f3816118b7565b9050919050565b7f4e487b7100000000000000000000000000000000000000000000000000000000600052602260045260246000fd5b6000600282049050600182168061194157607f821691505b602082108103611954576119536118fa565b5b50919050565b7f4e487b7100000000000000000000000000000000000000000000000000000000600052601160045260246000fd5b6000611994826112bf565b915061199f836112bf565b9250828210156119b2576119b161195a565b5b828203905092915050565b60006119c8826112bf565b91506119d3836112bf565b9250827fffffffffffffffffffffffffffffffffffffffffffffffffffffffffffffffff03821115611a0857611a0761195a565b5b828201905092915050565b7f5265656e7472616e637947756172643a207265656e7472616e742063616c6c00600082015250565b6000611a49601f83611231565b9150611a5482611a13565b602082019050919050565b60006020820190508181036000830152611a7881611a3c565b9050919050565b7f5f6e616d652063616e6e6f7420626520656d7074790000000000000000000000600082015250565b6000611ab5601583611231565b9150611ac082611a7f565b602082019050919050565b60006020820190508181036000830152611ae481611aa8565b9050919050565b600081905092915050565b6000611b0182611226565b611b0b8185611aeb565b9350611b1b818560208601611242565b80840191505092915050565b6000819050919050565b611b42611b3d826112bf565b611b27565b82525050565b6000611b548287611af6565b9150611b608286611af6565b9150611b6c8285611af6565b9150611b788284611b31565b60208201915081905095945050505050565b7f4576656e7420616c726561647920657869737473000000000000000000000000600082015250565b6000611bc0601483611231565b9150611bcb82611b8a565b602082019050919050565b60006020820190508181036000830152611bef81611bb3565b9050919050565b6000819050919050565b6000819050919050565b6000611c25611c20611c1b84611bf6565b611c00565b61134f565b9050919050565b611c3581611c0a565b82525050565b600060e082019050611c50600083018a611217565b8181036020830152611c628189611286565b90508181036040830152611c768188611286565b90508181036060830152611c8a8187611286565b9050611c9960808301866112c9565b611ca660a0830185611340565b611cb360c0830184611c2c565b98975050505050505050565b7f4f776e61626c653a206e6577206f776e657220697320746865207a65726f206160008201527f6464726573730000000000000000000000000000000000000000000000000000602082015250565b6000611d1b602683611231565b9150611d2682611cbf565b604082019050919050565b60006020820190508181036000830152611d4a81611d0e565b905091905056fea2646970667358221220a19569a7991c15b07f3b8f2d6932892935bfe4dde386002002f350607fde93bb64736f6c634300080d0033",
  "immutableReferences": {},
  "source": "// SPDX-License-Identifier: MIT\npragma solidity ^0.8.4;\n\nimport \"@openzeppelin/contracts/access/Ownable.sol\";\nimport \"@openzeppelin/contracts/security/ReentrancyGuard.sol\";\n\nimport \"./OracleInterface.sol\";\n\n\n\n/**\n * @title An smart-contract Oracle that register sport events, retrieve their outcomes and communicate their results when asked for.\n * @notice Collects and provides information on sport events and their outcomes\n */\ncontract BetOracle is OracleInterface, Ownable, ReentrancyGuard {\n\n    /**\n     * @dev all the sport events\n     */\n    SportEvent[] events;\n\n    /*\n     * @dev map of composed {eventId (SHA3 of event key infos) => eventIndex (in events)} pairs\n     */\n    mapping(bytes32 => uint) eventIdToIndex;\n\n    /***\n      * @dev defines a sport event along with its outcome\n      */\n    struct SportEvent {\n        bytes32      id;\n        string       name;\n        string       teamAname;\n        string       teamBname;\n        uint         date;\n        EventOutcome outcome;\n        int8         winner;\n    }\n\n    // FYI: enum EventOutcome is defind in OracleInterface\n\n    /**\n     * @dev Triggered once an event has been added\n     */\n    event SportEventAdded(\n        bytes32      _eventId,\n        string       name,\n        string       _teamAname,\n        string       _teamBname,\n        uint         _date,\n        EventOutcome _eventOutcome,\n        int8         _winner\n    );\n\n    /**\n     * @notice Add a new pending sport event into the blockchain\n     * @param _name descriptive name for the sport event (e.g. Pac vs. Mayweather 2016)\n     * @param _teamAname name of teamA\n     * @param _teamBname name of teamB\n     * @param _date date set for the sport event\n     * @return the unique id of the newly created sport event\n     */\n    function addSportEvent(\n        string memory _name,\n        string memory _teamAname,\n        string memory _teamBname,\n        uint          _date\n    )\n        public onlyOwner nonReentrant\n        returns (bytes32)\n    {\n        bytes memory bytesName = bytes(_name);\n        require(bytesName.length > 0, \"_name cannot be empty\");\n        // require(\n        //     _date >= block.timestamp + 1 weeks,\n        //     \"_date must be >= 1 week from now\"\n        // );\n\n        // Hash key fields of the sport event to get a unique id\n        bytes32 eventId = keccak256(abi.encodePacked(_name, _teamAname, _teamBname, _date));\n\n        // Make sure that the sport event is unique and does not exist yet\n        require( !eventExists(eventId), \"Event already exists\");\n\n        // Add the sport event\n        events.push( SportEvent(eventId, _name, _teamAname, _teamBname, _date, EventOutcome.Pending, -1));\n        uint newIndex           = events.length - 1;\n        eventIdToIndex[eventId] = newIndex + 1;\n\n        emit SportEventAdded(\n            eventId,\n            _name,\n            _teamAname,\n            _teamBname,\n            _date,\n            EventOutcome.Pending,\n            -1                      // no winner yet\n        );\n\n        // Return the unique id of the new sport event\n        return eventId;\n    }\n\n    /**\n     * @notice Returns the array index of the sport event with the given id\n     * @dev if the event id is invalid, then the return value will be incorrect and may cause error; you must call eventExists(_eventId) first!\n     * @param _eventId the sport event id to get\n     * @return the array index of this event if it exists or else -1\n     */\n    function _getMatchIndex(bytes32 _eventId)\n        private view\n        returns (uint)\n    {\n        return eventIdToIndex[_eventId] - 1;\n    }\n\n    /**\n     * @notice Determines whether a sport event exists with the given id\n     * @param _eventId the id of a sport event id\n     * @return true if sport event exists and its id is valid\n     */\n    function eventExists(bytes32 _eventId)\n        public view override\n        returns (bool)\n    {\n        if (events.length == 0) {\n            return false;\n        }\n        uint index = eventIdToIndex[_eventId];\n        return (index > 0);\n    }\n\n    /**\n     * @notice Sets the outcome of a predefined match, permanently on the blockchain\n     * @param _eventId unique id of the match to modify\n     * @param _outcome outcome of the match\n     * @param _winner 0-based id of the winnner\n     */\n    function declareOutcome(bytes32 _eventId, EventOutcome _outcome, int8 _winner)\n        onlyOwner external\n    {\n        // Require that it exists\n        require(eventExists(_eventId));\n\n        // Get the event\n        uint index = _getMatchIndex(_eventId);\n        SportEvent storage theMatch = events[index];\n\n        if (_outcome == EventOutcome.Decided)\n            require(_winner >= 0);\n\n        // Set the outcome\n        theMatch.outcome = _outcome;\n\n        // Set the winner (if there is one)\n        if (_outcome == EventOutcome.Decided)\n            theMatch.winner = _winner;\n    }\n\n    /**\n     * @notice gets the unique ids of all pending events, in reverse chronological order\n     * @return an array of unique pending events ids\n     */\n    function getPendingEvents()\n        public view override\n        returns (bytes32[] memory)\n    {\n        uint count = 0;\n\n        // Get the count of pending events\n        for (uint i = 0; i < events.length; i = i + 1) {\n            if (events[i].outcome == EventOutcome.Pending)\n                count = count + 1;\n        }\n\n        // Collect up all the pending events\n        bytes32[] memory output = new bytes32[](count);\n\n        if (count > 0) {\n            uint index = 0;\n            for (uint n = events.length;  n > 0;  n = n - 1) {\n                if (events[n - 1].outcome == EventOutcome.Pending) {\n                    output[index] = events[n - 1].id;\n                    index = index + 1;\n                }\n            }\n        }\n\n        return output;\n    }\n\n    /**\n     * @notice gets the unique ids of events, pending and decided, in reverse chronological order\n     * @return an array of unique match ids\n     */\n    function getAllSportEvents()\n        public view override\n        returns (bytes32[] memory)\n    {\n        bytes32[] memory eventIds = new bytes32[](events.length);\n\n        // Collect all event ids\n        if (events.length > 0) {\n            uint index = 0;\n            for (uint n = events.length; n > 0; n = n - 1) {\n                eventIds[index = index + 1] = events[n - 1].id;\n            }\n        }\n\n        return eventIds;\n    }\n\n    /**\n     * @notice gets the specified sport event and return its data\n     * @param _eventId the unique id of the desired event\n     * @return id   the id of the event\n     * @return name the name of the event\n     * @return teamAname\n     * @return teamBname\n     * @return date when the event takes place\n     * @return outcome an integer that represents the event outcome\n     * @return winner the index of the winner\n     */\n    function getEvent(bytes32 _eventId)\n        public view override\n        returns (\n            bytes32       id,\n            string memory name,\n            string memory teamAname,\n            string memory teamBname,\n            uint          date,\n            EventOutcome  outcome,\n            int8          winner\n        )\n    {\n        // Get the sport event\n        if (eventExists(_eventId)) {\n            SportEvent storage theMatch = events[_getMatchIndex(_eventId)];\n            return (theMatch.id, theMatch.name, theMatch.teamAname, theMatch.teamBname, theMatch.date, theMatch.outcome, theMatch.winner);\n        }\n        else {\n            return (_eventId, \"\", \"\", \"\", 0, EventOutcome.Pending, -1);\n        }\n    }\n\n    /**\n     * @notice return the data of the most recent sport event\n     * @param _pending if true, returns only the most recent pending sport event;\n     *   otherwise, returns the most recent sport event either pending or completed\n     * @return id   the id of the event\n     * @return name the name of the event\n     * @return teamAname\n     * @return teamBname\n     * @return date when the event takes place\n     * @return outcome an integer that represents the event outcome\n     * @return winner the index of the winner\n     */\n    function getLatestEvent(bool _pending)\n        public view override\n        returns (\n            bytes32         id,\n            string memory   name,\n            string memory   teamAname,\n            string memory   teamBname,\n            uint            date,\n            EventOutcome    outcome,\n            int8            winner\n        )\n    {\n        bytes32          eventId = 0;\n        bytes32[] memory ids;\n\n        if (_pending) {\n            ids = getPendingEvents();\n        } else {\n            ids = getAllSportEvents();\n        }\n        if (ids.length > 0) {\n            eventId = ids[0];\n        }\n\n        // Return a null sport event by default\n        return getEvent(eventId);\n    }\n\n\n    /**\n     * @notice gets the address of this contract\n     * @return the address of the BetOracle smart-contract\n     */\n    function getAddress()\n        public view\n        returns (address)\n    {\n        return address(this);\n    }\n\n    /**\n     * @notice can be used by a client contract to ensure that they've connected to this contract interface successfully\n     * @return true, unconditionally\n     */\n    function testConnection()\n        public pure override\n        returns (bool)\n    {\n        return true;\n    }\n\n}",
  "sourcePath": "/home/sunny/Github/crypto-bet/contracts/BetOracle.sol",
  "compiler": {
    "name": "solc",
    "version": "0.8.13+commit.abaa5c0e.Emscripten.clang"
  },
  "schemaVersion": "3.4.7",
  "updatedAt": "2022-04-14T04:25:03.850Z",
  "networkType": "ethereum",
  "devdoc": {
    "events": {
      "SportEventAdded(bytes32,string,string,string,uint256,uint8,int8)": {
        "details": "Triggered once an event has been added"
      }
    },
    "kind": "dev",
    "methods": {
      "addSportEvent(string,string,string,uint256)": {
        "params": {
          "_date": "date set for the sport event",
          "_name": "descriptive name for the sport event (e.g. Pac vs. Mayweather 2016)",
          "_teamAname": "name of teamA",
          "_teamBname": "name of teamB"
        },
        "returns": {
          "_0": "the unique id of the newly created sport event"
        }
      },
      "declareOutcome(bytes32,uint8,int8)": {
        "params": {
          "_eventId": "unique id of the match to modify",
          "_outcome": "outcome of the match",
          "_winner": "0-based id of the winnner"
        }
      },
      "eventExists(bytes32)": {
        "params": {
          "_eventId": "the id of a sport event id"
        },
        "returns": {
          "_0": "true if sport event exists and its id is valid"
        }
      },
      "getAddress()": {
        "returns": {
          "_0": "the address of the BetOracle smart-contract"
        }
      },
      "getAllSportEvents()": {
        "returns": {
          "_0": "an array of unique match ids"
        }
      },
      "getEvent(bytes32)": {
        "params": {
          "_eventId": "the unique id of the desired event"
        },
        "returns": {
          "date": "when the event takes place",
          "id": "  the id of the event",
          "name": "the name of the event",
          "outcome": "an integer that represents the event outcome",
          "teamAname": "teamAname",
          "teamBname": "teamBname",
          "winner": "the index of the winner"
        }
      },
      "getLatestEvent(bool)": {
        "params": {
          "_pending": "if true, returns only the most recent pending sport event;   otherwise, returns the most recent sport event either pending or completed"
        },
        "returns": {
          "date": "when the event takes place",
          "id": "  the id of the event",
          "name": "the name of the event",
          "outcome": "an integer that represents the event outcome",
          "teamAname": "teamAname",
          "teamBname": "teamBname",
          "winner": "the index of the winner"
        }
      },
      "getPendingEvents()": {
        "returns": {
          "_0": "an array of unique pending events ids"
        }
      },
      "owner()": {
        "details": "Returns the address of the current owner."
      },
      "renounceOwnership()": {
        "details": "Leaves the contract without owner. It will not be possible to call `onlyOwner` functions anymore. Can only be called by the current owner. NOTE: Renouncing ownership will leave the contract without an owner, thereby removing any functionality that is only available to the owner."
      },
      "testConnection()": {
        "returns": {
          "_0": "true, unconditionally"
        }
      },
      "transferOwnership(address)": {
        "details": "Transfers ownership of the contract to a new account (`newOwner`). Can only be called by the current owner."
      }
    },
    "stateVariables": {
      "events": {
        "details": "all the sport events"
      }
    },
    "title": "An smart-contract Oracle that register sport events, retrieve their outcomes and communicate their results when asked for.",
    "version": 1
  },
  "userdoc": {
    "kind": "user",
    "methods": {
      "addSportEvent(string,string,string,uint256)": {
        "notice": "Add a new pending sport event into the blockchain"
      },
      "declareOutcome(bytes32,uint8,int8)": {
        "notice": "Sets the outcome of a predefined match, permanently on the blockchain"
      },
      "eventExists(bytes32)": {
        "notice": "Determines whether a sport event exists with the given id"
      },
      "getAddress()": {
        "notice": "gets the address of this contract"
      },
      "getAllSportEvents()": {
        "notice": "gets the unique ids of events, pending and decided, in reverse chronological order"
      },
      "getEvent(bytes32)": {
        "notice": "gets the specified sport event and return its data"
      },
      "getLatestEvent(bool)": {
        "notice": "return the data of the most recent sport event"
      },
      "getPendingEvents()": {
        "notice": "gets the unique ids of all pending events, in reverse chronological order"
      },
      "testConnection()": {
        "notice": "can be used by a client contract to ensure that they've connected to this contract interface successfully"
      }
    },
    "notice": "Collects and provides information on sport events and their outcomes",
    "version": 1
  }
}